:020000040800F2
:1000000038C50020690200083F28000815220008B2
:100010003D2800083518000885460008000000004B
:10002000000000000000000000000000993E0008F1
:10003000D118000800000000EB0200087940000819
:10004000830200088302000883020008830200087C
:10005000830200088302000883020008830200086C
:10006000830200088302000883020008830200085C
:10007000830200088302000883020008830200084C
:10008000830200088302000883020008830200083C
:10009000830200088302000883020008830200082C
:1000A000830200088302000883020008830200081C
:1000B00083020008F9400008D541000883020008C7
:1000C00083020008830200088302000883020008FC
:1000D00083020008830200088302000875430008B9
:1000E000D518000883020008830200088302000874
:1000F00083020008830200088302000883020008CC
:1001000083020008830200088302000883020008BB
:1001100083020008830200088302000883020008AB
:10012000830200088302000883020008830200089B
:10013000830200088302000883020008830200088B
:10014000830200088302000883020008830200087B
:10015000830200088302000883020008830200086B
:10016000830200088302000883020008830200085B
:10017000830200088302000883020008830200084B
:10018000830200088302000800F002F800F05CF827
:100190000AA090E8000C82448344AAF10107DA45E2
:1001A00001D100F051F8AFF2090EBAE80F0013F0D8
:1001B000010F18BFFB1A43F0010318476426010022
:1001C000842601000A444FF0000C10F8013B13F0A4
:1001D000070408BF10F8014B1D1108BF10F8015BA0
:1001E000641E05D010F8016B641E01F8016BF9D193
:1001F00013F0080F1EBF10F8014BAD1C0C1B09D1EA
:100200006D1E58BF01F801CBFAD505E014F8016B5B
:1002100001F8016B6D1EF9D59142D6D370470000ED
:100220000023002400250026103A28BF78C1FBD8FF
:10023000520728BF30C148BF0B6070471FB50BF095
:10024000FCFE1FBD10B510BD00F054FF1146FFF7B6
:10025000F5FF0AF08FFA00F072FF03B4FFF7F2FF28
:1002600003BC00F073FF00000948804709480047BD
:10027000FEE7FEE7FEE7FEE7FEE7FEE7FEE7FEE756
:10028000FEE7FEE704480549054A064B70470000B3
:100290009D4000088901000838BF002038C50020B3
:1002A00038C1002038C10020EFF3108072B67047CB
:1002B00080F3108870471D484FF0FF010170002047
:1002C00080F309881A48012101701A484FF08051C3
:1002D000016062B6FEE717484FF080510160704739
:1002E00014484FF080510160704772B6EFF30980F7
:1002F00028B1203880E8F00F0F490968086000B580
:100300000E4880475DF804EB0D480E490A780270EC
:1003100009480D490A680260106890E8F00F203023
:1003200080F309884EF0040E62B6704722ED00E0BB
:100330007B00002004ED00E094000020253200083E
:1003400078000020790000209C00002072B67047E1
:1003500062B67047EFF3108072B6704780F3108872
:100360007047B0FA80F0704790FAA0F0704730BF45
:10037000704720BF70470000DFED2E0AB5EEC00ABF
:1003800060EE200ABDEEE01A11EE100AF1EE10FA4E
:1003900038BF401E00EE100ADFED271AF7EE005AB4
:1003A000B8EEC00ADFED274A244930EEC01A21EE2C
:1003B000210AFCEEC00A10EE900A00EE900A01EB52
:1003C0008000B8EE600ADFED1E0AF0EC012A11EEA3
:1003D000210AF6EE001AB0EC013AF0EC013A20EEF8
:1003E000001A20EE216A40EE615A20EE245A21EED6
:1003F000212A90ED004A00EE602A66EE010A40EEE6
:10040000400A05EE412A70EEA55AF0EE400A41EE90
:10041000210A46EE410A25EE011A00EE641A22EE88
:10042000820A63EEA00A03EE250A44EE010A30EECA
:10043000200A704783F9223E0000804370C1000803
:10044000ABAAAA3EABAA2A3E9FED3A0A5FEA920CFB
:1004500053D000BFB0EC011A0B1DF0EC010A21EEE5
:10046000011A00EEA01AB5EEC01AF1EE10FAC6BFDE
:10047000F1EEC10AC1ED000A81ED000AF0EC010ABB
:10048000191DB0EC011A60EEA00A41EE010AF5EE6A
:10049000C00AF1EE10FAC6BFF1EEE00AC3ED000AA1
:1004A00083ED000AB0EC011A0B1DF0EC010A21EEFD
:1004B000011A00EEA01AB5EEC01AF1EE10FAC6BF8E
:1004C000F1EEC10AC1ED000A81ED000AB0EC011A9B
:1004D000191DF0EC010A21EE011A00EEA01AB5EE8A
:1004E000C01AF1EE10FAC6BFF1EEC10AC3ED000A60
:1004F00083ED000ABCF1010CACD112F0030208BF7D
:10050000704700BFF0EC010A0B46B0EC011A091D60
:1005100060EEA00A41EE010AF5EEC00AF1EE10FA13
:10052000C6BFF1EEE00AC3ED000A83ED000A521ED9
:10053000E8D17047000000002DE9F00700EBC10989
:10054000DDE90778D0F800A0C9F800A007EB011496
:10055000D0F804A0251FA9F10406C9F804A003EBF4
:10056000C80907F1080C00F1080402EBC8024B1E91
:1005700031D000BFF2EC011A96ED002A92ED001A7C
:1005800002EBC802B4EC010A121FF4EC012A60EE7F
:10059000210A20EE010A32EE823A02EEA10AD9EDDA
:1005A000001A43EE410A09EBC80902EE610A16ED92
:1005B000012A083E42EE210A02EE410AECEC010A51
:1005C000ACEC010AB1EE400A85ED000A45ED010AE6
:1005D000083D5B1ECED190ED000AD0ED010A07EB7D
:1005E000C10130EE600A81ED000A9FED5D0A81EDE8
:1005F000010AD0ED000A90ED011A70EE810AC7EDF4
:10060000000A87ED010ABDE8F007704770B400EBFF
:10061000C105DDE903C42D1D002904BF70BC70476E
:10062000F2EC011A95ED002A92ED001A02EBC402D9
:10063000B0EC010A121FF0EC012A60EE210A20EE54
:10064000410A32EE823A02EEA10AD3ED001A43EEDD
:10065000010A03EBC40302EE610A15ED012A083D0D
:10066000491E42EE210A02EE010AECEC010AACEC52
:10067000010AD5D170BC70472DE9F04305464469A5
:10068000807983B00F461646012809D0A3892188B6
:100690003846626800F036F9E87901284ED053E018
:1006A000AA88D5E9030307EBC20CD5F808803146C8
:1006B0000CF1040C5AB300BFB0EC011A9CED002AF7
:1006C000D0ED001A00EBC800B7EC010A001FF7ECF0
:1006D000012A521E60EE010A20EE610A32EE823AD1
:1006E00002EE810A93ED001A43EE210A03EBC803E0
:1006F00002EE410A1CED012AACF1080C42EE010A9F
:1007000002EE210AE1EC010AA1EC010AD4D194ED38
:10071000040AA38921883046626800F095FAE879D6
:1007200001281CBF03B0BDE8F083E2892188A368DB
:1007300003B03046BDE8F04300F08CB8E289218870
:100740003846A36800F086F8A868CDE90060D5E9CE
:100750000323A9883846FFF7EFFE03B0BDE8F08316
:100760000000000070B592B2DDF810C055080260BC
:100770008580184EC66006F50056DBB2066100247F
:10078000837180F807C0802A04BF102282600BD0DA
:10079000B2F5007F08BF042212D0B2F5006F14BF7B
:1007A0004FF0FF3401220BD0002B8C4641614FF0FB
:1007B000000307D001222946604600F015FC06E040
:1007C0008260F1E700222946604600F00DFC2046D9
:1007D00070BD00007CC5000870B40025B0EC010AB3
:1007E000A1F1010CF0EC010AB4EEE00AF1EE10FA0E
:1007F0003CBFB0EE600A0125ACF10104A446B4F19F
:10080000004F0ED3F0EC010AB4EEE00AF1EE10FA5C
:100810003CBFB0EE600AA1EB0C05BCF1010CF1D1BC
:1008200013E0002CC8BF00260FDD00BFF0EC010A6A
:10083000B4EEE00AF1EE10FA04D2ACEB0605B0EE2D
:10084000600A4D1B761C641EF0D182ED000A1D600B
:1008500070BC70472DE9F0014E0801244FF0000CE8
:1008600004EB51076146A6F102082CE061452AD24B
:1008700000EBCC0500EBC104D5ED000A94ED000AB5
:10088000C4ED000A85ED000AD5ED010A94ED010AD8
:10089000C4ED010A85ED010A0CEB0705CC1900EB4C
:1008A000C50500EBC404D5ED000A94ED000AC4EDC3
:1008B000000A85ED000AD5ED010A94ED010AC4EDA8
:1008C000010A85ED010A00EBC104B44400EBCC0C35
:1008D00094ED020ADCED000A891CC4ED020A8CEDDD
:1008E000000A94ED030ADCF80450E5608CED010A7F
:1008F000B3F800C089B203EB42034145B6D9BDE865
:10090000F00170472DE9F04F4FEA910C4FF00008CD
:100910004746644608EB0C0505EB0C0909EB0C0691
:1009200000EBC80A00EBC9099AED000AD9ED000AEC
:1009300099ED012A00EBC50530EE201A30EE600A71
:10094000DAED010A00EBC60608F1010870EE821A22
:1009500070EEC20A95ED002AD6ED002A641E32EE32
:10096000222A71EE022A31EE421ACAED002A95EDD2
:10097000012AD6ED012A32EE222A71EE822A71EE88
:10098000C21ACAED012A95ED012AD6ED012A96ED8B
:10099000003A4FEA470A32EE622AD5ED002A02EB0E
:1009A000CA0B72EEC32A9BED003ADBED013A21EE51
:1009B000034A01EEA34A61EE831A41EE631A85ED04
:1009C000004A30EE021A30EE420AC5ED011A02EB7F
:1009D000C70570EEE21A95ED002A70EEA20AD5ED79
:1009E000012A21EE023A0AEB070502EBC5051F4476
:1009F00001EEA23A61EE821A41EE621A89ED003AE6
:100A0000C9ED011AD5ED001A95ED011A20EE212A43
:100A100000EE812A60EEA10A40EE410A86ED002A2E
:100A2000C6ED010A7FF476AF9B044FEA134BE6460E
:100A3000BCF1040F7DD9E0464FEA9C0C4FF0000951
:100A4000CA46BCF1000F75D94FEA490404EB09030B
:100A500002EBC90502EBC40402EBC30395ED001AD7
:100A6000D5ED011A94ED000AD4ED010A93ED002AA8
:100A7000D3ED012AD94453468A4573D203EB0C04C3
:100A800004EB0C0606EB0C0500EBC30700EBC606F7
:100A900097ED003AD6ED003A96ED015A00EBC4040A
:100AA00073EE234A33EE633AD7ED013A00EBC50506
:100AB00033EE854A73EEC53A94ED005AD5ED005AEF
:100AC00035EE255A74EE855A74EEC54AC7ED005AC4
:100AD00094ED015AD5ED015A35EE255A74EE055ABA
:100AE00034EE454AC7ED015A94ED015AD5ED015A4D
:100AF00095ED006A35EE655AD4ED005A75EEC65A8A
:100B000024EE806A04EE206A24EE004A04EEE04AF5
:100B100084ED006A73EEE54A73EEA53A84ED014A6E
:100B200033EE054A33EE453A24EE015A04EEA15A5B
:100B300001E026E01BE064EE814A86ED005A434462
:100B40008B4244EE614A23EE024A03EEA24A63EE70
:100B5000823AC6ED014A43EE623A85ED004AC5EDA0
:100B6000013A8BD30AF1010AE245FFF46DAF4FEA77
:100B70008B434FEA9E0E4FEA134BBEF1040F3FF634
:100B80005AAFA1EB0C0100224B1C4FEA9C04002B36
:100B90008CBF1F46BDE8F08F11190E19331900EBF9
:100BA000C20500EBC60695ED000AD6ED000A95EDEC
:100BB000012A96ED011A70EE201A70EE600A32EEEC
:100BC000010A00EBC10100EBC30332EE411A91EDC3
:100BD000002AD3ED002A6244974232EE222A71EEB7
:100BE000822A31EEC22AC5ED002AD1ED011AD3EDD9
:100BF000012A71EEA21A70EE212AC5ED012A70EECB
:100C0000612A91ED010AD3ED011A93ED003A70EEDD
:100C1000611A91ED000A81ED002AC1ED012A30EE42
:100C2000430A30EEA12A70EEE10A71EE401A31EE6D
:100C3000000A86ED002AC6ED011AC3ED000A83ED15
:100C4000010AA9D8BDE8F08F2DE9F04F4FEA910CC9
:100C50004FF000084746644608EB0C0505EB0C0A0C
:100C60000AEB0C0600EBC80900EBCA0AD9ED000A32
:100C70009AED001ADAED012A00EBC50570EE811A33
:100C800070EEC10A99ED011A00EBC60608F10108E1
:100C900031EE222A31EE621AD5ED002A96ED003AA5
:100CA000641E72EE832A31EEA23A71EEE21A89EDE9
:100CB000003AD5ED012A96ED013A72EE832A32EE22
:100CC000223A32EE622A89ED013AD5ED012A96EDFB
:100CD000013AD6ED003A4FEA470972EEC32A95ED84
:100CE000003A02EBC90B33EE633ADBED003A9BEDC1
:100CF000014A61EEA34A42EE444A22EE232A01EE63
:100D0000842AC5ED004A70EEE21A70EEA20A85ED63
:100D1000012A02EBC70531EE032AD5ED002A31EE98
:100D2000431A95ED013A61EEA23A09EB070502EB91
:100D3000C5051F4442EE433A22EE222A01EE832AE1
:100D4000CAED003A8AED012AD5ED001A95ED012A87
:100D500060EEA12A41EE422A21EE211A00EE821A0B
:100D6000C6ED002A86ED011A7FF476AF9B044FEAA8
:100D7000134BE646BCF1040F7DD9E0464FEA9C0CCC
:100D80004FF00009CA46BCF1000F75D94FEA49047B
:100D900004EB090302EBC90502EBC40402EBC30335
:100DA000D5ED001A95ED012AD4ED000A94ED011A53
:100DB000D3ED002A93ED013AD94453468A4573D2C4
:100DC00003EB0C0404EB0C0606EB0C0500EBC3076D
:100DD00000EBC606D7ED003A96ED004AD6ED015A73
:100DE00000EBC40433EE845A73EEC43A97ED014A23
:100DF00000EBC50574EE254A34EE654AD4ED005A81
:100E000095ED006A75EE865A35EE256A35EE655A1F
:100E100087ED006AD4ED015A95ED016A75EE865AA8
:100E200034EEA56A74EEE54A87ED016AD4ED015A05
:100E300095ED016AD5ED006A75EEC65A94ED006A2B
:100E400036EE666A65EE206A44EEC16A64EEA04A38
:100E500045EE014AC4ED006A34EE065A34EE464AC5
:100E6000C4ED014A73EEE54A73EEA53A64EEA15A69
:100E700045EE425A01E026E01BE025EE215AC6ED80
:100E8000005A43448B4204EE825A63EEA24A44EE77
:100E9000434A24EE224A86ED015A03EE834AC5ED09
:100EA000004A85ED014A8BD30AF1010AE245FFF4BD
:100EB0006DAF4FEA8B434FEA9E0E4FEA134BBEF1E4
:100EC000040F3FF65AAFA1EB0C0100224B1C4FEA76
:100ED0009C06002B8CBF1F46BDE8F08F91198D1921
:100EE000AB1900EBC20400EBC505D4ED000AD5ED4B
:100EF000001AD4ED012A95ED012A30EEA11A70EE08
:100F0000E11A72EE820A00EBC10100EBC30332EE7C
:100F1000C22AD1ED002A93ED003A6244974272EE64
:100F2000832A31EE223A71EE622A23EE003A62EE13
:100F3000802A84ED003A91ED011A93ED013A31EEE9
:100F4000031A30EE813A23EE003A84ED013A30EE96
:100F5000C13AD1ED010A93ED011AD3ED003A30EE1A
:100F6000C11AD1ED000AC1ED002A63EE002A70EE2D
:100F7000E30AC1ED012A71EEC12A31EE811A72EE47
:100F8000201A72EE600A22EE802A21EE001A61EE2B
:100F9000801A85ED002A60EE800AC5ED011A83ED06
:100FA000001AC3ED010A99D8BDE8F08F30B50446A8
:100FB0000D4680782188A389626801280DD02846D3
:100FC000FFF7A0FCE078012818BF30BDE289218836
:100FD0002846A368BDE830403CE494ED040A284666
:100FE000FFF732FEEEE7000010B401801B4C4460B6
:100FF00082704FF0000CC370102925D040291BD0FF
:10100000B1F5807F10D0B1F5806F18BF4FF0FF3C75
:1010100002D010BC6046704701218181C181104916
:101020009FED100A816016E004218181C1810E4983
:101030009FED0E0A81600EE010218181C1810C4973
:101040009FED0C0A816006E040218181C1810A493F
:101050009FED0A0A816080ED040ADAE77C05010849
:101060007C2501080000803A822501080000803BB1
:101070009A2501080000803CFA2501080000803D07
:1010800010B5203AC0F00B80B1E81850203AA0E823
:101090001850B1E81850A0E81850BFF4F5AF5FEA57
:1010A000027C24BFB1E81850A0E8185044BF18C90A
:1010B00018C0BDE810405FEA827C24BF51F8043BB1
:1010C00040F8043B08BF7047D20728BF31F8023B05
:1010D00048BF11F8012B28BF20F8023B48BF00F899
:1010E000012B7047704770477047000000487047F9
:1010F000D4BE00207546FFF7F9FFAE4605006946ED
:10110000534620F00700854618B020B5FFF7BAF81F
:10111000BDE820404FF000064FF000074FF00008F8
:101120004FF0000B21F00701AC46ACE8C009ACE879
:10113000C009ACE8C009ACE8C0098D467047044658
:10114000AFF300802046FFF788F870470149182068
:10115000ABBEFEE72600020010B5064C01220023BC
:101160001146204600F09AF92046BDE8104000F0F4
:10117000CFB900000020014010B5064C0023012229
:101180000C21204600F08AF92046BDE8104000F00E
:10119000BFB900000020014010B5064C0023012219
:1011A0000421204600F07AF92046BDE8104000F006
:1011B000AFB900000020014010B5064C0023012209
:1011C0000721204600F06AF92046BDE8104000F0F3
:1011D0009FB900000020014010B5064C00230122F9
:1011E0000921204600F05AF92046BDE8104000F0E1
:1011F0008FB900000020014010B5064C00230122E9
:101200000D21204600F04AF92046BDE8104000F0CC
:101210007FB900000021014010B5064C00230122D7
:101220000E21204600F03AF92046BDE8104000F0BB
:101230006FB900000021014010B5064C00230122C7
:101240000F21204600F02AF92046BDE8104000F0AA
:101250005FB900000021014010B5064C00230122B7
:101260000321204600F01AF92046BDE8104000F0A6
:101270004FB900000022014070B59CB001212F48F9
:1012800002F07EFC01214FF4E06002F09DFC4FF083
:10129000007000902A4801902A4802A900240125E4
:1012A00031C1E802CDE90640800008904011099064
:1012B0000AA90594400231C1234E0D946946304677
:1012C0000E9400F0DBFA0121304600F0CDFA032045
:1012D0008DF8680019908DF86B4019A91B4800F033
:1012E000A5FB15941694179415A8189400F07AF895
:1012F0000F948DF8404011941394114C8DF8415087
:101300004C3C8DF850500FA9204600F0A1F8002366
:1013100001220821204600F0C1F80121204600F0FA
:1013200083F80121204600F075F80121204600F0E5
:101330004FF8204600F0ECF81CB070BD02004000F1
:101340004C21014010000020406402400004024093
:1013500010B5064C002301220A21204600F09EF819
:101360002046BDE8104000F0D3B800000022014044
:1013700010B5064C002301220B21204600F08EF808
:101380002046BDE8104000F0C3B800000022014034
:1013900010B5064C002301220C21204600F07EF8F7
:1013A0002046BDE8104000F0B3B800000022014024
:1013B00010B5064C002301220221204600F06EF8F1
:1013C0002046BDE8104000F0A3B800000022014014
:1013D0000029816802D041F0010101E021F0010102
:1013E00081607047094B10B51A68094902EA010289
:1013F000D0E9001441EA0401D0E9024044EA0004C3
:1014000041EA040141EA0201196010BD04230140D0
:10141000E030FCFF0029816802D041F4807101E0D6
:1014200021F48071816070470029816802D041F405
:10143000007101E021F4007181607047C06C80B2DE
:1014400070470246002012680A4200D0012070470F
:1014500030B542680F4B0C791A400B6842EA0422FF
:101460001343436082680C4B4D791A40D1E9034322
:1014700023438C6844EA4504234313438360C26AD0
:10148000097D22F47002491EC9B242EA0151C162CB
:1014900030BD0000FFFEFFFCFDF7FFC070B5072563
:1014A00009290AD9C468A1F10A0606EB4606B54027
:1014B000AC43B3401C43C46007E0046901EB410640
:1014C000B540AC43B3401C4304611F23072A09D233
:1014D000446B521E02EB820293409C4391400C43AA
:1014E000446370BD0D2A09D2046BD21F02EB820245
:1014F00093409C4391400C43046370BDC46A0D3A11
:1015000002EB820293409C4391400C43C46270BD45
:10151000816841F0804181607047000010B5154C32
:10152000012803D0022811D0002010BD072301227A
:1015300005212046FFF7B2FF2046FFF7E9FF022111
:101540002046FFF77EFF0028F9D00EE00723012296
:1015500006212046FFF7A2FF2046FFF7D9FF022110
:101560002046FFF76EFF0028F9D02046BDE8104066
:10157000FFF764BF0020014000F078BE10B50446BC
:1015800000F03CFFA02000F0FBFE00F08BFF200AE3
:1015900000F0F6FE00F086FFE0B200F0F1FE00F091
:1015A00081FF00F02BFFA12000F0EAFE00F07AFF9F
:1015B000002000F0A9FE044600F04AFF204610BDBE
:1015C00070B504460D4600F019FFA02000F0D8FECB
:1015D00000F068FF200A00F0D3FE00F063FFE0B2E5
:1015E00000F0CEFE00F05EFF284600F0C9FE00F0DD
:1015F00059FF00F02DFFBDE870400A2008F0FAB84E
:101600007047000038B5002001F038FA1F4C6062C6
:10161000002001F033FAA062002001F02FFA2063CD
:10162000002001F01DFB6063002001F027FAE0625A
:10163000002001F015FBA0636A4615A10A2001F005
:101640009BFC0523154A0021154801F0EFFB0423FC
:10165000144A0021144801F0E9FB0323134A002136
:10166000134801F0E3FB0223124A0021124801F063
:10167000DDFB0123114A0021114801F0D7FB0023B3
:10168000104A1946104801F0D1FB38BD0000002077
:101690005374617274205461736B0000E009002080
:1016A000D5160008E0AA002095170008E0AB00203E
:1016B000F5160008E00A0020F5170008E0AC00204D
:1016C000093E0008E0AD0020E9B3000801F068BF62
:1016D00070470000064C00BF09F0EEFEE07908B943
:1016E00007F02AFF08F040FE642008F083F8F3E7D3
:1016F000000000201CB51D4C1D4D002640F2DC579B
:10170000E07910B9032001F035FDE079012828D1F6
:1017100018496F200870606B01F028FB208BC8B15E
:10172000401E20834FF02F08CDE900680123687820
:101730001A46002109F0A8F8CDE90068687802236C
:101740000122002109F0A0F8208B012802D10220FB
:10175000A07126831020FFF711FF04496870433100
:101760000870384608F046F8CAE70000000000207C
:10177000F2AD00204501002010B501F03BFBFFF762
:1017800041FFBDE810400A2001F0F4BC704701F0B1
:101790000FBF000008B5154C00256A460021606B9C
:1017A00001F084FAE0790128F7D1607A012803D1A9
:1017B0000F4808F05FFD65720D4BA3F1140202F1B2
:1017C0002801A1F5B97009F0D9F909491439A1F531
:1017D000A57008F04BFB064BA3F1140202F128019F
:1017E000A1F5B97003F03CFED7E70000000000202F
:1017F000DA0200200C4C08B50C4D142604F1430706
:10180000E079012802D1022001F0B4FC6A460021EF
:10181000606A01F059F909F07FF8A6821020FFF7FD
:10182000ADFE68703870EBE700000020F2AD0020DC
:1018300001F0D0BEFEE770B5292002F077FB012051
:1018400002F074FB032002F071FB0025002400214C
:10185000284602F049FF641CE4B2042CF7D36D1C47
:10186000EDB2162DF2D370BD0029016802D041F00F
:10187000010101E021F001010160704730B503680A
:10188000124ACC6813400A682243D1E905452C432B
:101890002243CC6922430C6A22434C6A22438C6A5D
:1018A00022434C6B22438C6B22431A4302604269F1
:1018B00022F00703D1E90B2422431A4342610A694B
:1018C00042604A6882608968C16030BD3F801CF018
:1018D0007047000010B501F097F84FF4805420468F
:1018E00000F05AF838B14FF47A7007F0A1FF0548BC
:1018F000806B01F03BFA204600F006F8BDE810408E
:1019000001F08EB800000020014908607047000017
:10191000143C014030B5012185B0084602F030F991
:101920000121880302F050F900248DF810404FF493
:1019300080558DF8134003A91248039500F076F8FE
:101940000C21002002F0AAFA8DF8044010208DF836
:101950000500012400958DF80640684600F02CF83B
:1019600028208DF808008DF809408DF80A408DF880
:101970000B4002A800F068FF284600F005F805B00B
:1019800030BD00000000024002490A6802430A60BC
:1019900070470000103C0140064A014600201268D2
:1019A000044B0A4014331B680B4202D0002A00D0BB
:1019B00001207047003C014030B51B498379026823
:1019C00063B30B6893430B600A1D13680468A34359
:1019D000136002790A441368046823431360124AAF
:1019E000083213680468A3431360131D1C6805685C
:1019F000AC431C6090F805C0BCF1100F05D06144E9
:101A00000A68006802430A6030BD11680468214317
:101A10001160196800680143196030BD00790844FD
:101A200001689143016030BD003C0140F0B50022E7
:101A300001234FF0030C00BF0D6803FA02F42540A8
:101A4000A5422DD1066854000CFA04F5AE43066099
:101A50000E790768A6403E4306600E79012E01D03C
:101A6000022E12D18668AE4386604D798668A54005
:101A700035438560456803FA02F6B543456045681D
:101A80008E799640B6B235434560C56856000CFA6B
:101A900006F7BD43C560CD79A540C4682543C56040
:101AA000521C102AC8D3F0BD4B07DB0E9A40C90860
:101AB00010B500EB8100016A0F249C40A143016234
:101AC000016A1143016210BD0246002012690A42F8
:101AD00000D00120704741837047018370470000A8
:101AE0002DE9F041044601210C2002F0FDFD354DA9
:101AF0002878012803D10121062002F0F5FD28787D
:101B000018B90121052002F0EFFD01210F2002F09C
:101B1000EBFD0421072002F0E7FD2B4D287801287A
:101B200003D10421084602F0DFFD2878022803D102
:101B30000221042002F0D8FD2878032803D10121D6
:101B4000042002F0D1FD42F21077B4FBF7F51E4EEF
:101B5000A8B2B61C06EB40010222102002F094FD50
:101B600007FB15404FF47A75B0FBF5F006EB40012A
:101B70000222122002F088FDB4FBF5F005FB1040B4
:101B80006425B0FBF5F006EB40010222142002F0C0
:101B90007BFDB4FBF5F005FB10400A25B0FBF5F02A
:101BA00006EB40010222002002F06EFDB4FBF5F0CE
:101BB00005FB104006EB4001BDE8F0410222104653
:101BC00002F062BD00000020000100202DE9F0417C
:101BD00004460E46174604210C2002F085FD012123
:101BE0000E2002F081FD0121112002F07DFD012176
:101BF0000F2002F079FD414D2878012803D1012101
:101C0000062002F071FD287818B90121052002F0A4
:101C10006BFD3B4D2878012807D10421084602F0CE
:101C200063FD0121072002F05FFD2878022807D11B
:101C30000221042002F058FD0221072002F054FD89
:101C40002878032807D10121042002F04DFD04214A
:101C5000072002F049FD4FF06408B4FBF8F5012FAE
:101C600001D04FB10CE0264802222A3000EB45019A
:101C7000102002F009FD03E00521112002F034FDDF
:101C800008FB15400A25B0FBF5F04746DFF87080E9
:101C9000022208F1020808EB4001122002F0F4FCD5
:101CA000B4FBF5F005FB1040B0FBF5F105FB1100AE
:101CB00008EB40010222142002F0E6FCB6FBF7F428
:101CC000022208EB4401104602F0DEFC07FB146020
:101CD000B0FBF5F008F1140404EB400102220A20E5
:101CE00002F0D2FCB6FBF5F005FB106004EB4001FE
:101CF000BDE8F0410222082002F0C6BC000000202E
:101D0000000100202DE9F041044601210C2002F0E1
:101D1000EBFC334D2878012803D10121062002F085
:101D2000E3FC287818B90121052002F0DDFC01212F
:101D30000F2002F0D9FC2B4D2878012803D1042173
:101D4000084602F0D1FC2878022803D102210420A1
:101D500002F0CAFC2878032803D10121042002F0F4
:101D6000C3FC42F21077B4FBF7F51E4EA8B2B61CC6
:101D700006EB40010222102002F086FC07FB154012
:101D80004FF47A75B0FBF5F006EB40010222122009
:101D900002F07AFCB4FBF5F005FB10406425B0FBC3
:101DA000F5F006EB40010222142002F06DFCB4FBBA
:101DB000F5F005FB10400A25B0FBF5F006EB4001FD
:101DC0000222002002F060FCB4FBF5F005FB10409D
:101DD00006EB4001BDE8F0410222104602F054BC7F
:101DE00000000020000100202DE9F04104460D46CE
:101DF0000821072002F078FC284E3078012803D112
:101E00000121062002F070FC307818B9012105206C
:101E100002F06AFC01210F2002F066FC4FF064081A
:101E2000B4FBF8F61E4F022207EB4601102002F029
:101E30002BFC08FB16400A26B0FBF6F007EB40012E
:101E40000222122002F020FCB4FBF6F006FB104048
:101E500007EB40010222142002F016FCB5FBF8F457
:101E6000022207EB4401104602F00EFC08FB14505E
:101E7000B0FBF6F007F1140404EB400102220A2043
:101E800002F002FCB5FBF6F006FB105004EB40013B
:101E9000BDE8F0410222082002F0F6BB000000205D
:101EA000020100202DE9F041044605210F2002F037
:101EB0001BFC324D2878012803D10121062002F0B5
:101EC00013FC287818B90121052002F00DFC2C4DD7
:101ED0002878012803D10121072002F005FC287889
:101EE000022803D10221072002F0FEFB28780328F4
:101EF00003D10421072002F0F7FB42F21077B4FB74
:101F0000F7F51F4EA8B2B61C06EB400102221420C2
:101F100002F0BAFB07FB15404FF47A75B0FBF5F001
:101F200006EB40010222002002F0AEFBB4FBF5F00C
:101F300005FB10406425B0FBF5F006EB40010222E2
:101F4000104602F0A1FBB4FBF5F005FB10400A259A
:101F5000B0FBF5F0143606EB40010222284602F0F1
:101F600093FBB4FBF5F005FB104006EB4001BDE828
:101F7000F0410222082002F087BB00000000002090
:101F80000001002070B504460821062002F0ACFBD9
:101F90000821072002F0A8FB01210F2002F0A4FB7A
:101FA0006426B4FBF6F51048022200EB450110460A
:101FB00002F06AFB06FB15400A25B0FBF5F00A4E5D
:101FC0000222143606EB4001284602F05DFBB4FB0A
:101FD000F5F005FB104006EB4001BDE87040022221
:101FE000082002F051BB0000020100202DE9F04161
:101FF00004460D4604210E2002F076FB08210C2039
:1020000002F072FB284E3078012803D1012106200E
:1020100002F06AFB307818B90121052002F064FB58
:1020200001210F2002F060FB4FF06408B4FBF8F6CA
:102030001E4F022207EB4601102002F025FB08FB91
:1020400016400A26B0FBF6F007EB400102221220F0
:1020500002F01AFBB4FBF6F006FB104007EB400160
:102060000222142002F010FBB5FBF8F4022207EB69
:102070004401104602F008FB08FB1450B0FBF6F0D8
:1020800007F1140404EB400102220A2002F0FCFADA
:10209000B5FBF6F006FB105004EB4001BDE8F04143
:1020A0000222082002F0F0BA000000200201002005
:1020B00070B5044608210D2002F016FB1A4D287851
:1020C000012803D10121062002F00EFB287818B95F
:1020D0000121052002F008FB01210F2002F004FB82
:1020E0006426B4FBF6F51148022200EB45011046C8
:1020F00002F0CAFA06FB15400A25B0FBF5F00B4EBC
:102100000222143606EB4001284602F0BDFAB4FB69
:10211000F5F005FB104006EB4001BDE870400222DF
:10212000082002F0B1BA00000000002002010020E7
:102130001CB50121022001F023FD4FF438700090FE
:1021400001208DF8040000208DF806000220124CBA
:102150008DF8050069462046FFF768FC61152046AA
:10216000FFF7BBFC20212046FFF7B7FC40212046AB
:10217000FFF7B3FC80212046FFF7AFFC022001F0FF
:10218000D5FE292001F0D2FE012001F0CFFE032070
:1021900001F0CCFE1CBD0000000402402DE9F0411E
:1021A0001A4E0546707801282DD10020184F707006
:1021B0004FF4007841463846FFF78DFC002440215B
:1021C0003846FFF788FC28064FF08001384602D4D5
:1021D000FFF781FC01E0FFF780FC032007F028FBFC
:1021E00040213846FFF779FC6806641C050EE4B20E
:1021F000082CE4D30A2007F01BFB41463846FFF7C2
:102200006CFC01207070BDE8F0810000000100202E
:1022100000040240FEE700007CB5134E4FF4005569
:1022200029463046FFF757FC01208DF804000220B4
:102230006C008DF80500009469463046FFF7F6FB08
:1022400021463046FFF747FC022007F0F1FA294605
:102250003046FFF742FC022007F0EAFA29463046F2
:10226000FFF739FC7CBD0000000402401CB50121D1
:10227000022001F085FC4FF4E040009001208DF831
:10228000040002200A4C8DF8050069462046FFF73D
:10229000CDFBA1142046FFF71EFC4FF40051204651
:1022A000FFF71BFC4FF480412046FFF716FC1CBDD6
:1022B000000402407CB5134E4FF4005529463046C9
:1022C000FFF709FC01208DF8040002206C008DF856
:1022D0000500009469463046FFF7A8FB21463046CA
:1022E000FFF7FBFB022007F0A3FA29463046FFF771
:1022F000F4FB022007F09CFA29463046FFF7EBFB7F
:102300007CBD0000000402402DE9FC4700241B4E68
:1023100080464FF480478DF8044000978DF80740C1
:1023200069463046FFF782FB0025B9467F103946E3
:102330003046FFF7D0FB022007F07AFA39463046E4
:10234000FFF7CBFB6006040E49463046FFF7BCFBA7
:1023500008B1641CE4B2012007F06AFA6D1CEDB20A
:10236000082DE4D3B8F1000F04D0FFF755FF204645
:10237000BDE8FC87FFF79EFFF9E70000000402407C
:102380002DE9FC47054601208DF8040002201A4E75
:102390004FF480478DF80500009769463046FFF7F7
:1023A00045FB4FF4005841463046FFF794FBB946D1
:1023B0000024474628064946304602D4FFF78BFBE7
:1023C00001E0FFF78AFB6806050E022007F030FAED
:1023D00039463046FFF781FB022007F029FA3946DB
:1023E0003046FFF778FB022007F022FA641CE4B2C3
:1023F000082CDFD3BDE8FC87000402407CB5012037
:102400008DF804000220114D4FF480448DF8050032
:10241000009469462846FFF709FB21462846FFF746
:102420005CFB661031462846FFF757FB032007F098
:10243000FFF921462846FFF74EFB032007F0F8F985
:1024400031462846FFF747FB7CBD000000040240F0
:102450007CB501208DF804000220114D4FF480441A
:102460008DF80500009469462846FFF7DFFA6610EC
:1024700031462846FFF72FFB21462846FFF72BFB66
:10248000032007F0D5F931462846FFF726FB214601
:102490002846FFF722FB032007F0CAF97CBD0000A5
:1024A000000402402DE9FC410024184E4FF4804501
:1024B0008DF8044000958DF8074069463046FFF7D7
:1024C000B5FA29463046FFF708FB012007F0B0F9BE
:1024D0006F1039463046FFF700FB012007F0A8F9DE
:1024E00008E0641CE4B2FA2C04D9FFF7B1FF012024
:1024F000BDE8FC8129463046FFF7E6FA0028F0D116
:1025000039463046FFF7E7FA0020F1E700040240C1
:1025100002494AF6AA2008607047000000300040D7
:10252000054A45F2555313605060916058001060A1
:102530004CF6CC4010607047003000402DE9F04769
:102540009CB001215E4801F01BFB01214FF4E060CB
:1025500001F03AFB4FF0806000905A48019001254D
:10256000594802A9002431C106A8EE026F034FF4B6
:1025700080784FF400390594A0E8D003CDE90B45ED
:10258000DFF848A10D94694650460E94FFF776F99E
:1025900001215046FFF768F94D4802A9CDE90040F6
:1025A0004948DFF828A1801C31C106A80594A0E89D
:1025B000D003CDE90B45AAF1180A0D94694650469F
:1025C0000E94FFF75BF901215046FFF74DF96806BD
:1025D0000090404801903C4802A9001D31C106A866
:1025E0000594A0E8D003394ECDE90B4518360D947B
:1025F000694630460E94FFF741F901213046FFF756
:1026000033F93F20032615908DF858608DF85B4014
:1026100015A93148FFF70AFAFE2015908DF8586089
:102620008DF85B4015A92D48FFF700FA1794189410
:10263000199417A81A94FEF7D5FE0F948DF8404010
:10264000119413941F4C8DF841504C3C8DF8505010
:102650000FA92046FEF7FCFE1E4D0FA94C3D284653
:10266000FEF7F6FE1A4E0FA94C3E3046FEF7F0FE7E
:1026700001212046FEF7D8FE01212846FEF7D4FEB0
:1026800001213046FEF7D0FE01212046FEF7C2FEB2
:1026900001212846FEF7BEFE01213046FEF7BAFEB4
:1026A00001212046FEF794FE01212846FEF790FE08
:1026B00001213046FEF78CFE1CB0BDE8F08700001B
:1026C000050040004C2201400C000020286402401C
:1026D0004C2001404C210140000802400000024013
:1026E0001CB50121084601F04BFA4FF4C050009090
:1026F00000208DF8040069460148FFF797F91CBDDA
:10270000000002402DE9F04106000D46144602D0BB
:10271000012E05D009E0012D07D134B9332002E0A4
:102720001DB914B92D20FFF739FD46EA050757EA10
:10273000040002D12B20FFF731FD012E01D03EB164
:1027400010E0012D01D05DB10CE05CB9352004E052
:10275000012D07D1012C05D15320FFF71FFD01E00A
:10276000012C01D017B106E04D20F6E7012C02D173
:102770004B20FFF713FD012E0AD0022E0ED1022DA1
:102780000CD1022C0AD10120BDE8F041FFF706BDB3
:10279000012D03D1012C01D15520F5E7BDE8F081D1
:1027A0002DE9F04106000D46144602D0012E05D059
:1027B00009E0012D07D134B9B32002E01DB914B9E5
:1027C000AD20FFF7EBFC46EA050757EA040002D10B
:1027D000AB20FFF7E3FC012E01D03EB110E0012D4C
:1027E00001D05DB10CE05CB9B52004E0012D07D14A
:1027F000012C05D1D320FFF7D1FC01E0012C01D041
:1028000017B106E0CD20F6E7012C02D1CB20FFF76F
:10281000C5FC012E0AD0022E0ED1022D0CD1022CA5
:102820000AD18120BDE8F041FFF7B8BC012D03D1EA
:10283000012C01D1D520F5E7BDE8F081FEE7704716
:102840004FF4A06000F032B870B50F21C478027860
:1028500001234FF0E026E4B1124C246804F4E06454
:10286000C4F5E064C4F30724C4F10405E1404478EE
:10287000AC4085780D4025430B4C2901115500785B
:1028800000F01F018B40400906EB8000C0F80031CA
:1028900070BD02F01F008340500906EB8000C0F8B5
:1028A000803170BD0CED00E000E400E00249084317
:1028B00002490860704700000000FA050CED00E0D6
:1028C0007047000070B505000E46144605D036B1BD
:1028D0000E48807828B112200DE004200BE00C2077
:1028E00009E02878012808D0022806D0032804D05F
:1028F000042802D00120107070BDFDF7D5FC6E6178
:10290000FDF7D6FC0020207070BD00007400002090
:1029100030B587B000F070F82A4800240463847052
:10292000C4700472C471C460C46184614461447041
:102930008471214600F134025454491CC9B208295B
:10294000FAD3047144718462046200F071FF00F0F4
:1029500043FF00F01BFF00F0ADFF00F0D1FF02AA23
:102960000325202031C218494FF6FF70CDE9000140
:1029700001F17C023F230021144800F09FFA05AAD0
:1029800013A13F2000F0F8FA02AA402031C21449F6
:102990004FF6FE70CDE9000101F1FC023E2300215B
:1029A000104800F08BFA05AA0FA13E2000F0E4FACF
:1029B00000F0E0FC00F026F807B0BDE83040FFF77B
:1029C0007FBF000074000020DCB00020BD3A00088A
:1029D00075432F4F532D49492049646C6500000011
:1029E000DCAF0020D93A000875432F4F532D4949D9
:1029F0002053746174000000014900200880704772
:102A000070000020704700000449C879012804D1F3
:102A10008878FF2801D2401C88707047740000201D
:102A200070B5144DE879012822D1FDF73DFC04462C
:102A3000A87820B1401E10F0FF00A87013D1E878EC
:102A400088B900F0A1FF0C48697950F82100A8620C
:102A50002A79914207D0C16B491CC163E868401CC8
:102A6000E860FDF73DFC2046BDE87040FDF720BC66
:102A700070BD0000740000205CB1002070B50546F8
:102A80000E48007808B1002070BDFDF70DFC01462E
:102A90000B4804680CB1626802600846FDF708FC48
:102AA0004CB1012020700020208106A0656060618B
:102AB000204600F061FE204670BD00007600002038
:102AC000840000203F0000002DE9F0470500884603
:102AD000144604D02878012803D001200AE00420FD
:102AE00008E02C48007808B1022003E02A4800786A
:102AF00020B10D2010700020BDE8F087FDF7D4FB59
:102B00006E68074600213EB1884638466960FDF789
:102B1000CFFB84F800803AE0DFF880A08946DAF83D
:102B2000000010F8342F42F002020270417040F8A9
:102B3000048C284600F0F2FD3846FDF7B9FB00F0A2
:102B4000FFFEFDF7B1FB0746DAF8000090F83510FC
:102B500031B1022908D0294600F0B0FD0A2004E076
:102B6000466A84F8009001E00E202070DAF8001028
:102B7000384601F11C0181F8189081F81990C1F8CC
:102B80000090C1F80490C1F80890FDF791FB304621
:102B9000B2E70000760000207700002094000020BB
:102BA00070B504000D4605D035B12078012805D058
:102BB000012070BD042070BD032070BDFDF774FBC3
:102BC0000646A07A58B1002302222946204600F08A
:102BD00039FD3046FDF76CFB00F0B2FE0AE060689C
:102BE00020B13046FDF764FB142070BD30466560AF
:102BF000FDF75EFB002070BD10B5094CE07901289F
:102C00000CD1FDF751FBA17821B9E178FF2901D260
:102C1000491CE170BDE81040FDF74ABB10BD000043
:102C20007400002010B50D4CE079012814D1FDF797
:102C30003BFBE17831B1491E11F0FF01E17001D198
:102C4000A17819B1BDE81040FDF732BBFDF730FBAC
:102C5000BDE8104000F074BE10BD000074000020FC
:102C600070B505460E48007808B1002070BDFDF72C
:102C70001BFB01460B4804680CB162680260084601
:102C8000FDF716FB4CB10320207025810020606009
:102C900005A06061204600F06FFD204670BD000079
:102CA00076000020840000203F0000002DE9F0475E
:102CB00005008846144604D02878032803D0012054
:102CC0000AE0042008E02648007808B1022003E06A
:102CD0002448007818B10D201070BDE8F087FDF78A
:102CE000E3FA06462889002730B1401E2881304685
:102CF000FDF7DEFA2770F0E7DFF86C90D9F80000F6
:102D000010F8341F41F001010170477040F8048C45
:102D1000284600F003FD3046FDF7CAFA00F010FE29
:102D2000FDF7C2FA0646D9F8000090F8351031B127
:102D3000022906D0294600F0C1FC0A2002E02770D3
:102D400001E00E202070D9F8000000F11C00077689
:102D50004776076047603046BDE8F047FDF7A8BA00
:102D600076000020770000209400002070B5040059
:102D700004D02078032803D0012070BD042070BD4A
:102D8000FDF792FA0546A07A58B1002301221946B0
:102D9000204600F057FC2846FDF78AFA00F0D0FDE7
:102DA00009E020894FF6FF71884206D2401C20813D
:102DB0002846FDF77DFA002070BD2846FDF778FA19
:102DC000332070BD10B5094CE07900280CD100F01B
:102DD000DBFD60790649207151F82000A062206275
:102DE000BDE81040FDF767BA10BD00007400002078
:102DF0005CB1002010B5022000F016FAFDF754FA7D
:102E0000084C0021E161FDF753FA642000F00CFA50
:102E1000FDF74AFAE169616101216170BDE8104086
:102E2000FDF746BA74000020FEF7EABB2DE9FE4329
:102E300005460F4690461C463F2B02D92A20BDE886
:102E4000FE83FDF731FA1A49097819B1FDF730FA16
:102E50003C20F4E7174E56F8241019B1FDF728FA74
:102E60002820ECE7012146F82410FDF721FA002381
:102E700042463946284600F04BF9002701460097A4
:102E800001973B463A462046029700F08DFD05002B
:102E900007D0FDF709FA46F82470FDF709FA28462D
:102EA000CDE7054800780128F9D100F049FDF6E7A3
:102EB000760000205CB100207B0000202DE9F04F5F
:102EC00081462DED028B83B08A46DDE90F879DEDAB
:102ED000118A129D93461C463F2B05D92A2003B028
:102EE000BDEC028BBDE8F08FFDF7DEF91D490978D6
:102EF00019B1FDF7DDF93C20F1E71B4E56F824101F
:102F000019B1FDF7D5F92820E9E7012146F8241089
:102F1000FDF7CEF92A463946404600F025FE2B46FD
:102F20005A465146484600F0F3F800978DED018A65
:102F300001460295424620460E9B00F035FD0500F5
:102F400008D0FDF7B1F9002146F82410FDF7B0F9DB
:102F50002846C4E7054800780128F9D100F0F0FCC4
:102F6000F6E70000760000205CB100207B00002026
:102F7000FEF7ACBBFEF7ACBB70B505460E4614467B
:102F80003F2803D9FF2D01D02A2004E02EB112489A
:102F9000007820B11220107070BD0C20FBE7FDF707
:102FA00083F90146FF2D03D10C48006890F8365094
:102FB0000B4850F82500432540B1012806D006658E
:102FC0000846FDF775F90020207070BD0846FDF732
:102FD0006FF9257070BD000076000020940000207D
:102FE0005CB1002010B504463F2801D32A2010BD53
:102FF000FDF75AF901461F4850F8240058B101283E
:103000000ED090F8342013072FD512F0F70280F875
:1030100034200AD00BE00846FDF74AF9462010BDDF
:103020000846FDF745F9432010BD026B22B1084662
:10303000FDF73EF9002010BD0F4A00F138008378FB
:10304000147843EA0403137003780C4A4078D45C84
:1030500044EA0004D4540846FDF72AF908480078E9
:103060000128E7D100F06CFCE4E70846FDF720F901
:10307000442010BD5CB100207A000020A800002090
:103080007B000020FEF782BB2DE9F04104460D468F
:103090003F2804D9FF2C02D02A20BDE8F08145B199
:1030A000002028606860FDF7FFF80146FF2C02D081
:1030B00005E00920F1E71448006890F8364013480D
:1030C00050F8240058B1012809D0028AD2070BD049
:1030D000D0E9024700260846FDF7EAF80AE008466C
:1030E000FDF7E6F84320D8E70846FDF7E1F845206C
:1030F000D3E7761C01CC0028FBD0B0002860B81BB9
:10310000800068600020C8E7940000205CB10020C7
:103110004FF080731360131F18606FF0010042F8C6
:10312000080CA2F138004FF012334FF00332C0E91F
:103130000A234FF0023242624FF00132C0E9071217
:103140004FF0113181614FF0103141614FF0093181
:1031500001614FF00831C1604FF0073181604FF0DD
:10316000063141604FF0053140F804194FF0043149
:103170000160704770B5274D04463F2804D005D341
:10318000FF280CD02A2070BD472070BDFDF78CF8B9
:103190000346286890F83600A04206D007E0FDF705
:1031A00083F80346286890F83640012500E00025A2
:1031B000194850F8240068B1012810D090F8382040
:1031C000164C90F83960A15CF643F6B23140A15438
:1031D0000AD010E01846FDF76BF8482070BD18467D
:1031E000FDF766F8432070BD0D4A90F83A10147848
:1031F00024EA0101117010F8341F41F00801017038
:103200001846FDF755F8012D01D100F099FB00207B
:1032100070BD0000940000205CB10020A8000020D8
:103220007A000020FEF7B3BA70B50446144800785F
:10323000002824D113480078002820D1002C1ED06B
:10324000FDF732F803461048104D006890F838102A
:1032500090F839606A5CF643F6B232406A5406D19F
:103260000B4A90F83A10157825EA010111700463B1
:103270001846FDF71DF8BDE8704000F061BB70BD59
:10328000760000207700002094000020A800002095
:103290007A0000202DE9F04100F052F8FDF704F823
:1032A000264D296B491C2963FDF702F8E8790128AE
:1032B00041D1687A0126002720B101283BD002289D
:1032C00002D06F72EC6A32E06E72FBE7FCF7ECFF43
:1032D000216B49B3491E216326D194F8341011F0B3
:1032E000370F06D001F0C80184F8341084F8356037
:1032F00001E084F8357094F83410090714D404F10F
:103300003804AA79A178DFF834C041EA0201A97132
:1033100021780CF1340C63781CF80120A4F13804F6
:1033200042EA03020CF801206469FCF7C1FF94F83B
:1033300036003F28CAD1BDE8F081000074000020AB
:1033400010B5FEF775FA07480188491C89B201805B
:10335000642905D300210180BDE8104000F004B8C5
:1033600010BD00007000002001480068FFF7FEBC9F
:10337000C800002070B588B04FF420712E4800F0CE
:103380008FFA40212D4800F08BFA00202A4904468C
:103390006422431C00EB80001D4601EBC0009BB281
:1033A00003EB8303027001EBC30380F82540C36085
:1033B00023A30362A8B20F28EBD300EB800001EB3C
:1033C000C000027080F825401DA2C46002621D4842
:1033D0001E4A04601C480480102010801C480160B4
:1033E0000120FFF73DFC1B4D28600020FFF738FC53
:1033F000194E05AA19A130602868FFF763FA05AADB
:103400001BA13068FFF75EFA402102910320CDE94D
:1034100003401C4A4FF6FD70CDE900023D23FC320B
:1034200000211948FFF74AFD06AA18A13D20FFF721
:10343000A3FD08B070BD000014BB002094BE0020A6
:103440003F000000C0000020BE000020BC000020A3
:10345000CC000020C4000020C800002075432F4F7E
:10346000532D494920546D724C6F636B000000006E
:1034700075432F4F532D494920546D725369676E20
:10348000616C000094BD0020E534000875432F4FA7
:10349000532D494920546D7200000000032280F82A
:1034A00025200E4A0129126813D0816989B111447F
:1034B00041610B4A01F0070102EBC10100230A68D8
:1034C000086042B1C26010618A88521C8A80036120
:1034D0007047C169EBE70122C360F7E7C000002035
:1034E00094BE002008B5DFF86880DFF868901A4EB7
:1034F0006A460021D8F80000FFF7D8FBFFF77CFBF5
:103500003068401C306000F00700022759F8304056
:1035100013E061693068E56881420DD1204600F012
:103520001DF894F8240002280CD084F825706268F5
:1035300012B12046A16890472C46002CE9D1FFF734
:1035400071FBD5E701212046FFF7A8FFEFE7000058
:10355000C800002094BE0020C000002010B54169C2
:103560000E4A01F0070102EBC10200231468C16892
:10357000844203D1116041B10B6106E0D0F810C064
:10358000CCF80C1009B1C1F810C0012180F8251049
:10359000C36003619088401E908010BD94BE0020DF
:1035A00010B5044600F018F860640020206410BDD7
:1035B00010B500F011F805490968D1E91023C31AC4
:1035C0001A440A6402490968486410BD9400002046
:1035D0009C000020AFF3008070B5FCF765FE054647
:1035E00000F010F806490A890881821A886992B2A7
:1035F000841828468C61FCF75BFE204670BD0000F5
:10360000D00000204FF0804000F05FBE0B484FF428
:103610007A710068B0FBF1F0B0F1807F0DD220F03C
:103620007F414FF0E020491E4161054AF0211170B1
:1036300000218161072101617047FEE74C000020F5
:1036400023ED00E0F0B50546807A194C4FF00007F5
:10365000205C05EB0006F67AA45D04EBC004E6B23C
:10366000144C54F8264004F12404E7602160217CC6
:1036700021EA020121746374A4F1240409070BD424
:103680000D4994F83A208B791A438A71343194F8B1
:1036900039300A5C1A430A542946204600F00EF8D5
:1036A000216A19B1204600F01BF8E5613046F0BDF3
:1036B00070C000085CB100207400002010B590F8C4
:1036C000382090F839408B18E443DA7AE4B222408B
:1036D000DA7204D18A7A90F83A0082438A7210BD75
:1036E00030B510F8383F827890F801C0D2436FEAC5
:1036F0000C04E4B2D5B208680DE000BF00EB030C87
:103700009CF80B2022408CF80B2002D1827A2A40B0
:10371000827251F8040F0028F0D130BD30B5154940
:1037200000F10B020B6AD86193F838C093F8393076
:103730001CF802401C430CF802400A6A837A02F12A
:103740003802947843EA04038372137801F1340455
:103750005578E05C6FEA0505EDB22840A2F1380229
:10376000E05405D192F83A008A7922EA0000887183
:1037700030BD000074000020002282721146431800
:10378000491CC9B2DA720829F9D3704710B5502123
:103790000E4800F085F800200C4A0146431C1C46E8
:1037A00002EB00109BB202EB03130170436008A30D
:1037B000C360A0B20428F1D302EB00100170416095
:1037C00003A1C1600348026010BD0000ECB90020F5
:1037D0003F000000B000002010B54FF4F071114818
:1037E00000F05EF800200F4A0146431C1C4600EB27
:1037F00040009BB202EBC00003EB430302EBC303A8
:103800000170436008A34361A0B21328EDD300EB1D
:10381000400002EBC0000170416003A14161034818
:10382000026110BDFCAD00203F00000074000020CC
:1038300010B54FF4F261164800F032F84FF4807181
:10384000144800F02DF812490020421C00EB4004FF
:1038500004EBC000D3B203EB430401EBC00004EB64
:10386000C30301EBC30343610BA30365D0B2152867
:10387000EBD300EB400202EBC00001EBC00006A35B
:103880000022036542610548C262416210BD00002A
:103890005CB200205CB100203F00000074000020FA
:1038A000002203E0491E00F8012B89B20029F9D15A
:1038B0007047000010B578210E48FFF7F1FF0D4A60
:1038C000002000BF00EB400102EBC10101F1180331
:1038D0004B60401C08A380B24B610428F2D300EB7C
:1038E000400002EBC0000021416003A14161034898
:1038F000026010BD3CBA00203F000000B400002070
:1039000010B560210C48FFF7CBFF0B4A0020411C8B
:103910008BB200EB400003EB430302EBC30342F81E
:10392000303088B20328F2D300EB4000002142F887
:1039300030100248026010BDB4BA0020B800002068
:1039400070B5FCF7B1FC0E4D0446A87898B9E8783C
:1039500088B900F019F80B48697950F82100A8627D
:103960002A79914207D0C16B491CC163E868401CA9
:10397000E860FCF7B0FC2046BDE87040FCF798BC5E
:10398000740000205CB100200649054A01F13403AF
:103990008879105C1B5CD25C02EBC00048717047F8
:1039A00070C00008740000202DE9F04705462DED99
:1039B000028B0E4690469946DDED0A8A9DED0B8AF4
:1039C000DDF830A0FCF770FC394F7C6A002C6BD01E
:1039D00061697962FCF76CFC266084F83650002639
:1039E00084F8346084F83560266384ED018AC4ED80
:1039F000038A04F11C044FEAD50244F8148C24F81D
:103A00000CAC24F80A9CE677227705F007014FF00A
:103A1000010000FA02F2E176A27700FA01F0607785
:103A200026606660E660A6602662A662666221A0E5
:103A3000E662C4E90C60A4F11C04304604EB80018A
:103A400000F101004E6510F0FF00F7D02046FFF7AF
:103A5000EBF92046FFF78CFAFCF726FC01461648E6
:103A600040F82540F86AC4E9050600B18461FC62AB
:103A700004F13804BA79A07840EA0200B8710C4821
:103A8000227800F134006478835C43EA04038354B1
:103A9000387A00F1010038720846FCF709FC002072
:103AA000BDEC028BBDE8F087FCF702FC4220F7E793
:103AB000740000203F0000005CB10020054C00BFF6
:103AC000FCF7F2FBE169491CE161FCF7F1FBFFF750
:103AD00051FAF5E774000020144C02E0C820FFF70B
:103AE000A3FB60780028F9D0642160690025B0FB51
:103AF000F1F0606118B92570FF20FFF73BFBFCF780
:103B0000D3FBE169C4E90615FCF7D2FBD4E9051043
:103B1000B0FBF1F0C0F164002070FFF7B3FA00F0E1
:103B200007F86420FFF780FBE9E70000740000203D
:103B30007CB50C4D002469462046FFF7A5FA58B91C
:103B400055F8240040B1012806D0D0E9021201EB5B
:103B5000820181640199C164641CE4B23F2CEAD9FA
:103B60007CBD00005CB10020D30707D0920705D5CB
:103B70000022002902D004C0491EFAE77047000065
:103B8000044A0029116801D0014300E0814311601B
:103B90007047000030380240044A0029116801D003
:103BA000014300E08143116070470000403802404B
:103BB000044A0029116801D0014300E081431160EB
:103BC0007047000020380240044A0029116801D0E3
:103BD000014300E081431160704700004438024017
:103BE00030B5224B1968224A11F00C0104D055104F
:103BF000042903D0082903D002601DE005601BE002
:103C00001A49091F0C68C4F3805C0C68BCF1000FF2
:103C100004F03F0402D0B5FBF4F201E0B2FBF4F291
:103C20000C680968C4F388146243C1F30141491C5C
:103C30004900B2FBF1F1016019680E4A01F0F00190
:103C40000909545C0168E14041601C6804F4E054D7
:103C5000A40A145D21FA04F484601B6803F4604331
:103C60005B0BD25CD140C16030BD0000083802401F
:103C70000024F400600000202DE9F047804688B061
:103C800001210320FFF77CFF4FF4802901214846E2
:103C9000FFF782FF01268DF804600024DFF8D4A02E
:103CA0004FF400478DF80640022500978DF8055027
:103CB00069465046FDF7BAFE07220A215046FDF735
:103CC000F3FE07220B215046FDF7EEFE8DF804505F
:103CD00068028DF8064000908DF805508DF8076059
:103CE00069465046FDF7A2FEA80200908DF80450E8
:103CF0008DF8074069465046FDF798FE0121484679
:103D0000FFF756FF00214846FFF752FFADF810407D
:103D10000C20194DADF80C40ADF81200CDF808801C
:103D2000ADF80E40ADF8144002A9284600F046FC5C
:103D30004FF4A060FEF7BAFD27208DF818008DF82B
:103D400019408DF81A408DF81B6006A8FEF77CFD1F
:103D5000012240F22551284600F018FC0121284696
:103D600000F0E4FB39465046FDF7B5FE08B0BDE86B
:103D7000F087000000040240004800402DE9FC47A5
:103D8000804601208DF804000027DFF870A04FF472
:103D900000498DF8067002200D468DF805004C464E
:103DA000CDF80090694656465046FDF73FFE214645
:103DB0003046FDF792FE0024114E0FE040213046C0
:103DC00000F0BEFB0028F9D018F80410304600F0CF
:103DD00055FC642005F02CFD641CE4B2AC42EDD32C
:103DE0004021304600F0ACFB0028F9D005480762BE
:103DF00049465046FDF76FFEBDE8FC8700040240CF
:103E00000048004000000020204D214E1020FDF70A
:103E1000B5FB2870401E212818D3FCF745FA04464C
:103E20000220F071FFF7A6F90420FFF7A3F90320A1
:103E3000FFF7A0F92046FCF73BFA02221146104694
:103E4000FEF7AEFC642005F0D5FCDFE71F28DDD8C7
:103E5000FCF72AFA0022044611461046FEF7A0FCA1
:103E600000200C49F071287848700220FFF7BAF85A
:103E70000420FFF7B7F80320FFF7B4F80120FFF79D
:103E800079F92046FCF714FAC0E70000430100204E
:103E900000000020F2AD00207047000010B58A0736
:103EA00021F003040649130F21440F220C689A40A5
:103EB00094430C600A68984002430A6010BD0000F9
:103EC000083801402DE9F041164F05460E46787836
:103ED000012825D1002078700446DFF84C801BE0D3
:103EE00028064FF04001404602D4FDF7F4FD01E002
:103EF000FDF7F3FD80214046FDF7EDFD012005F0C3
:103F000097FC80214046FDF7E8FD012005F090FC7C
:103F10006806050E641CE4B2B442E1D30120787057
:103F2000BDE8F081000100200004024070B50A4D98
:103F3000044620212846FDF7CEFD03218020FFF70F
:103F4000C1FF09212046FFF7BDFF2846BDE87040AC
:103F50002021FDF7C2BD0000000402402DE9F04120
:103F6000164F05460E467878012821D1002078703A
:103F70000446DFF84C8017E0E8074FF04001404668
:103F800018D0FDF7AAFD80214046FDF7A4FD0120D1
:103F900005F04EFC80214046FDF79FFD012005F015
:103FA00047FC6D08641CE4B2B442E5D3012078708C
:103FB000BDE8F081FDF78FFDE5E70000000100207E
:103FC00000040240224900200A6842F480320A605C
:103FD0004FF4A0630A6800F1010012F4003F01D120
:103FE0009842F7D10868800331D5194840300268FB
:103FF00042F0805202601748026842F48042026038
:104000001348083002680260026842F4004202600D
:10401000026842F4A0520260031F0F4A1A600A6845
:1040200042F080720A600A689201FCD50B4A40F2A5
:1040300005611160016821F003010160016841F030
:10404000020101600168C1F381010229FAD17047C0
:10405000003802400070004008544007003C024015
:104060004FF0E0210428086903D020F00400086123
:10407000704740F00400FAE710B5FCF715F9064A5E
:104080001178491C1170FCF713F9FFF703F9BDE82B
:104090001040FEF7C5BC000076000020124810B5A5
:1040A000016841F4700101601048016841F00101AC
:1040B00001600E4A00210832116002680C4B1A4060
:1040C0000260031D0B4A1A60026822F4802202601B
:1040D00006480C300160FFF775FF03494FF00060A0
:1040E0008039086010BD000088ED00E00038024013
:1040F000FFFFF6FE1030002410B5FEF785FC184CCB
:104100000121204600F0E3F828B30121204600F009
:10411000CFF8144CE07978B9A08A40B912484078B9
:1041200007F040F96078401C6070A08A20B180B22E
:10413000401EA082012060700C48017821B1491E08
:1041400011F0FF01017006D10648433082794179B0
:104150000079FEF7D7FABDE81040FEF761BC000019
:104160000004004000000020F2AD002049010020C2
:104170007FB504460D4601210220FFF70DFD019495
:104180000020ADF80050124CADF80800ADF8020068
:104190006946204600F0AEF801221146204600F0A4
:1041A000A1F84FF4A060FEF781FB1D208DF80C00F4
:1041B00001218DF80D108DF80E108DF80F1003A849
:1041C000FEF742FB0121204600F075F87FBD00009C
:1041D0000004004010B5FEF717FC1A4C01212046E0
:1041E00000F075F848B30121204600F061F8FEF7B1
:1041F0008FF9154A0021D01E1378012B07D10378BF
:104200005B1CDBB20370282B01D101701170537855
:10421000012B07D143785B1CDBB24370282B01D103
:10422000417051709378012B07D183785B1CDBB20E
:104230008370282B01D181709170BDE81040FEF78A
:10424000EFBB0000000800401D0000207FB50446C1
:104250000D4601210420FFF79FFC0194ADF80050AA
:104260000024124DADF80840ADF8024069462846DA
:1042700000F040F801221146284600F033F84FF4D0
:10428000A060FEF713FB1E208DF80C0002208DF8B5
:104290000D008DF80E4001208DF80F0003A8FEF7E9
:1042A000D3FA0121284600F006F87FBD000800403F
:1042B000C943018270470029018802D041F0010101
:1042C00001E021F0010101807047406A7047038AD4
:1042D000002280890B4200EA010001D000B10122D6
:1042E00010467047002A828901D00A4300E08A43C1
:1042F0008281704730B50288174B184C98420DD018
:10430000A0420BD0B0F1804F08D0154DA84205D087
:10431000144DA84202D0144DA84204D122F0700CD2
:104320004A8842EA0C02114DA84207D0104DA8421B
:1043300004D022F4407C0A8942EA0C0202804A68D6
:10434000C2620A880285984201D0A04201D1897ACE
:1043500001860121818230BD00000140000401403E
:104360000004004000080040000C00400010004025
:1043700000140040F0B5ADF5017DFBF7EBFF664A98
:104380001178491C1170FBF7E9FF644C40F225518C
:10439000204600F0DCF800287ED0204600F06AF9C4
:1043A0005F4C216A6D460DEB0102491C21621070C1
:1043B000206A684410F8010C0127242802D18DF8E6
:1043C00000002762206A284410F8010C00263F28CC
:1043D00030D1206A0C2803D19DF808003C280DD06C
:1043E000206A0C2803D19DF80800402806D0206AD6
:1043F0000C281ED19DF8080021281AD1E079012847
:1044000011D148489DF80A104078884211D9464990
:10441000E671DE2008701420A0820320FEF7AAFEB9
:104420000220FEF7DFFDE07918B96946606AFEF701
:10443000B7FB2662206A284410F8010C2D2802D10F
:104440008DF800002762206A284410F8010C3D28EE
:104450000BD1206A072807D19DF805002F2803D12A
:104460006946606AFEF79CFB2662E07901283FD12D
:10447000206A284410F8010C262802D18DF800008B
:104480002762206A284410F8010C2A2815D12662D8
:104490009DF80100232800E038E003D16946A06AB6
:1044A000FEF77EFB9DF801002B2803D16946E06AE8
:1044B000FEF776FBE07901281AD1206A284410F82B
:1044C000010C252802D18DF800002762206A2844BB
:1044D00010F8010C292814D19DF80100282806D1D4
:1044E000206A0A2803D16946206BFEF759FB266231
:1044F000E07930B9206A284410F8010C292800D14D
:104500002662206AB0F5FA7F00D32662FEF788FAA9
:104510000DF5017DF0BD0000760000200048004050
:1045200000000020F2AD0020450100200029818913
:1045300002D041F4005101E021F400518181704723
:104540000246002012880A4200D00120704770B550
:1045500001F01F0601220025C1F3421302FA06F4FE
:10456000012B0FD0022B0FD0838A4FEA1121008834
:10457000234202FA01F200EA020001D000B1012553
:10458000284670BD8389F0E7038AEEE7C1F3421342
:1045900001F01F0C012101FA0CF1012B07D0022BB5
:1045A00007D01430002A026805D00A4304E00C301A
:1045B000F8E71030F6E78A43026070477FB504469B
:1045C000008A0D4620F44051E88808432082A089E3
:1045D00041F20C618843A9882A8911436A89024300
:1045E0001143A181A08A20F44071A8890843A082C8
:1045F0006846FFF7F5FA1D48844202D01C48844201
:1046000001D1039800E00298A1890904002900EB78
:10461000C00101EB0010296802DA4FEA410101E014
:104620004FEA8101B0FBF1F06422B0FBF2F14FEAF6
:1046300001114FEA11136FF018056B4300EB830073
:10464000A3891D044FF0320306D503EBC000B0FB75
:10465000F2F000F0070005E003EB0010B0FBF2F011
:1046600000F00F00084320817FBD000000100140D2
:10467000001401408088C0F308007047C1F30801AE
:1046800081807047FEE700002DE9F04104460D46A9
:1046900016462920FFF74AFC0120FFF747FC0320BC
:1046A000FFF744FC0F4F20213846FDF714FA032191
:1046B000A020FFF707FCA006000E0621FFF702FC72
:1046C000002406E028780421FFF748FC641CE4B2CB
:1046D0006D1CB442F6D33846BDE8F0412021FDF709
:1046E000FCB900000004024070B504460D462920C4
:1046F000FFF71CFC0120FFF719FC0320FFF716FC55
:104700000B4E20213046FDF7E6F90321A020FFF7EC
:10471000D9FBA006000E0621FFF7D4FB0421284692
:10472000FFF71CFC3046BDE870402021FDF7D5B9ED
:104730000004024003B401984100009850EAC120EF
:1047400018BF04204A0D18BF40F0010040F2FF726C
:10475000B2EB515F08BF40F00200012808BF0520FE
:1047600002B070470000000070B59F482DED020BAD
:104770002DED068B079D25F0004484421DDB9B48F0
:10478000844202DC0FD1069868B19DED060B53EC14
:10479000102B51EC100B06F015FFBDEC068B02B090
:1047A00041EC100B70BD002DCCBF9FED910B9FED28
:1047B000920BBDEC068B02B070BD9148844215DAB5
:1047C00090488442A8BF4FF0FF3440DA9DED060BBD
:1047D00051EC100BFFF7AEFF042808BF00F0A8FA59
:1047E0009DED060BBDEC068B02B070BD9DED060B7A
:1047F00051EC100B05F038F841EC100B82488DEDB0
:10480000060B9FED839B84423CDA834884421FDA87
:1048100000249FED83AB51EC100B53EC1A2B06F0E8
:10482000D1FE9DED060B41EC180B53EC1A2B51EC0D
:10483000100B07F067F953EC192B07F0A3FA53ECB0
:10484000182B06F073FF41EC100B8DED060B49E0C1
:10485000012453EC192B51EC100B06F0B3FE9DED27
:10486000060B41EC180B53EC192B51EC100B07F015
:1048700089FA53EC182B06F059FF41EC100B8DED23
:10488000060B2FE0684884421FDA02249FED68ABD4
:1048900051EC100B53EC1A2B07F034F953EC192B95
:1048A00006F090FE9DED060B41EC180B53EC1A2B15
:1048B00051EC100B07F066FA53EC182B06F036FF9C
:1048C00041EC100B8DED060B0CE053EC102B032488
:1048D0009FED590B51EC100B06F028FF41EC100B2B
:1048E0008DED060B9DED060B53EC102B51EC100BD0
:1048F00007F008F941EC180B53EC182B07F002F9FC
:1049000041EC190B4E480621B0EE490AF0EE690A57
:10491000784400F091F953EC182B51EC100B07F090
:10492000F1F841EC180B4748B0EE490AF0EE690A7D
:104930000521784400F080F953EC192B51EC100B51
:1049400007F0E0F841EC100B51EC180B53EC102B76
:10495000002C0EDA06F036FE9DED061B53EC112BF3
:1049600007F0D0F89DED061B53EC112B07F0FEF974
:1049700035E006F027FE9DED061B53EC112B07F0EA
:10498000C1F841EC100B3048784400EBC40090EDC6
:10499000001B51EC100B53EC112B07F0F3F99DEDBC
:1049A000061B53EC112B07F0EDF941EC100B2748D7
:1049B000784400EBC40090ED001B51EC100B53EC5D
:1049C000112B07F0D3F941EC100B002DA2BFBDEC69
:1049D000068B02B070BD51EC100B06F0B5FD41EC3A
:1049E000100BFFE600000000000010440000F07F04
:1049F000182D4454FB21F93F182D4454FB21F9BFD5
:104A00000000DC3F0000203E0000F33F00000000FB
:104A1000000000000000F03F0000E63F0000000042
:104A20000000000000000040008003400000000083
:104A3000000000000000F83F000000000000F0BF90
:104A4000D4DE00008ADE000014DE0000CCDD0000B1
:104A500070B5694E2DED040B2DED028B82B0DDE9B2
:104A6000053C079ACCF1000422F000414CEA040412
:104A700041EAD474049D23F00040B44205D86C424E
:104A80002C4340EAD474B44210D99DED060B53EC8C
:104A9000102B9DED040B51EC100B06F093FD41EC37
:104AA000100B02B0BDEC028B04B070BDA2F14054FB
:104AB000A4F17F6454EA0C040BD0022404EAA2742B
:104AC00044EAD37405439FED4E8B9FED4F2B07D0E7
:104AD00010E09DED040B51EC100B00F0CBF93BE026
:104AE000002C14BF012C9DED040BDAD0022C36D023
:104AF000032C39D051EA0C0C9FED451B9FED460B62
:104B00000AD0B14219D1B04209D121F0804120F040
:104B100080400791059010E0002BC2DA11E0DFF829
:104B200000C1FC44002C08BF9CED000BB9D0012C47
:104B30000CD0022C13D0032C16D0B04219D1002B6C
:104B4000AFDAB0EE410AF0EE610AAAE79CED000B85
:104B500051EC100B06F0F8FC41EC100BA1E7B0EEA5
:104B6000480AF0EE680A9CE7B0EE420AF0EE620AEC
:104B700097E7401A00153C2816DC002ABCBF10F14C
:104B80003C0F9FED290B0FDB9DED060B53EC102B1B
:104B90009DED040B51EC100B06F0C8FD04F064FE13
:104BA00000F068F941EC100B002C8DED000B3FF488
:104BB00078AF012C10D0022C9FED1D0B53EC102B65
:104BC0009DED000B51EC100B0ED007F0DBF853EC11
:104BD000182B07F0D7F8BFE710EE900A80F00040DE
:104BE00001909DED000B5CE707F0CCF853EC182B1F
:104BF00007F0BCF8B0E700000000F07F0000000004
:104C0000182D4454FB210940182D4454FB2109C0A0
:104C1000182D4454FB21F9BF182D4454FB21F93FB2
:104C2000F2DC0000000000000000000000000000B6
:104C3000075C143326A6A13C70B505462DED028B0A
:104C40004C1E00EBC400B0EE408AF0EE608A90ED9E
:104C5000000B34F0060017D053EC182B51EC100B5E
:104C600006F050FF41EC100B641E05EBC40090ED04
:104C7000001B51EC100B53EC112B06F0A3FC41EC84
:104C8000100B34F00600E7D1022C36D0042C1CD0D7
:104C9000062C1CBFBDEC028B70BD53EC182B51ECE5
:104CA000100B06F02FFF95ED0A1B53EC112B06F0AD
:104CB00089FC53EC182B06F025FF95ED081B53ECEF
:104CC000112B06F07FFC41EC100B53EC182B51EC30
:104CD000100B06F017FF95ED061B53EC112B06F099
:104CE00071FC53EC182B06F00DFF95ED041B53ECF3
:104CF000112B06F067FC41EC100B53EC182B51EC18
:104D0000100B06F0FFFE95ED021B53EC112B06F085
:104D100059FC53EC182B06F0F5FE95ED001B53ECF7
:104D2000112B06F04FFCBDEC028B41EC100B70BD5B
:104D30009FED050B10B553EC102B51EC100B06F04A
:104D4000E1FE41EC100B10BD00000000000000105F
:104D5000F0B500234FF480625C1E02EBD27504EBC9
:104D6000650419E05E1C00EE106A00EB8307B8EEE4
:104D7000C00AD7ED000A20EE800A87ED000A00EE97
:104D8000106A01EB83075B1CB8EEC00AD7ED000A7E
:104D900020EE800A87ED000A9C42E3DA6B10561E73
:104DA0001DE000BFA2EB030CACF1010C00EE10CA39
:104DB00000EB8307B8EEC00AD7ED000A20EE200A08
:104DC00087ED000A00EE10CA01EB83075B1CB8EE0A
:104DD000C00AD7ED000A20EE200A87ED000AB34290
:104DE000E0DB00221BE000BF02EB650300EB830663
:104DF00000EB820796ED000AD7ED000A01EB830372
:104E000030EE200A86ED000A01EB820693ED000ADF
:104E1000D6ED000A521C30EE200A83ED000A9442BF
:104E2000E2DC00220FE000BF02EB650300EB83062B
:104E300001EB830356F8046C40F8226053F8043CFD
:104E400041F82230521C9442EEDAF0BDB5EEC00AB1
:104E5000F1EE10FA05DDF1EEC00AC0ED000A002007
:104E600070479FED030A80ED000A4FF0FF30704756
:104E70000000000010B541EC100BFFF775FC51EC81
:104E8000100B10BDF0B5022A02D0052A3DD039E042
:104E9000847804EB440301EB43035D7893F802C08C
:104EA000DE7893F805E00DE004EB440301EB4303E7
:104EB000641CDF795F701F7A9F705F7ADF70DF7A22
:104EC0005F71E4B2C3785B1EA342EDDCC37803EBF1
:104ED000430301EB430303F8055CC37803EB43038F
:104EE00001EB430303F804CCC37803EB430301EB6A
:104EF000430303F8036CC37803EB430301EB430361
:104F000003F801EC0A2A48D03AE0047904EB4403A0
:104F100001EB43035D789E7893F803E093F805C0B6
:104F20000EE000BF04EB440301EB4303641CDF7994
:104F30005F701F7A9F705F7ADF70DF7A5F71E4B213
:104F400043795B1EA342EDDC437903EB430301EBA2
:104F5000430303F8055C437903EB430301EB43038D
:104F600003F8046C437903EB430301EB430303F8B9
:104F700003EC437903EB430301EB430303F801CC58
:104F8000142A6DD1037A03EB430201EB42025478F9
:104F90009578D67892F805C042E0837903EB430216
:104FA00001EB420254789578D67892F805C00DE06E
:104FB00003EB430201EB42025B1CD7795770177A6F
:104FC0009770577AD770D77A5771DBB2C279521E71
:104FD0009A42EDDCC27902EB420201EB420202F896
:104FE000054CC27902EB420201EB420202F8045C7A
:104FF000C27902EB420201EB420202F8036CC07973
:1050000028E000BF03EB430201EB42025B1CD779AF
:105010005770177A9770577AD770D77A5771DBB273
:10502000427A521E9A42EDDC427A02EB420201EBD6
:10503000420202F8054C427A02EB420201EB4202C4
:1050400002F8045C427A02EB420201EB420202F8EF
:10505000036C407A00EB400001EB400000F801CC0B
:10506000F0BD0000F0B5012973D110B1012839D08D
:1050700035E05C78002C34D004EB840502EB450568
:105080002E7995F801C095F807E00CE004EB840553
:1050900002EB45050544641CAF7B2F71EF7A6F70FE
:1050A0006F7CEF71E4B2DD796D1EA542EEDCDC7938
:1050B00004EB840402EB4404044404F8066CDC7939
:1050C00004EB840402EB4404044404F809CCDC79C6
:1050D00004EB840402EB4404044404F803EC0228C7
:1050E0003AD0ECE01C79002C77D004EB840502EB7D
:1050F0004506751C767995F801C095F807E00CE037
:1051000004EB840502EB45050544641CAF7B2F715D
:10511000EF7A6F706F7CEF71E4B29D7A6D1EA542DD
:10512000EEDC9C7A04EB840402EB4404044404F8AF
:10513000066C9C7A04EB840402EB4404044404F8F7
:1051400009CC9C7A04EB840402EB4404044404F884
:1051500003EC032931D0B2E05C7B002C76D004EB69
:10516000840502EB4506B51CB67995F801C095F8A3
:1051700007E00CE004EB840502EB45050544641CE4
:10518000AF7B2F71EF7A6F706F7CEF71E4B29D7B14
:105190006D1EA542EEDC9C7B04EB840402EB440410
:1051A000044404F8066C9C7B04EB840402EB440486
:1051B000044404F809CC9C7B7AE010B1012846D065
:1051C00035E09978002908D001EB810402EB440412
:1051D000257994F801C0E6790DE09AE001EB8104AD
:1051E00002EB44040444491CA77B2771E77A6770EB
:1051F000677CE771C9B21C7A641E8C42EEDC197AB6
:1052000001EB810102EB4101014401F8065C197ACE
:1052100001EB810102EB4101014401F809CC197A4B
:1052200001EB810102EB4101014401F8036C02280A
:105230006FD1D97B00296CD001EB810402EB4405CE
:10524000AC1CAD79667894F807C04CE037E05C7927
:10525000002C5ED004EB840502EB4506751C7679C4
:1052600095F801C095F807E00DE000BF04EB840558
:1052700002EB45050544641CAF7B2F71EF7A6F701C
:105280006F7CEF71E4B2DD7A6D1EA542EEDCDC7A54
:1052900004EB840402EB4404044404F8066CDC7A56
:1052A00004EB840402EB4404044404F809CCDC7AE3
:1052B00004EB840402EB4404044404F803EC0629E0
:1052C00027D138B301286BD05BE000BF01EB81042C
:1052D00002EB44040444491CA77B2771E77A6770FA
:1052E000677CE771C9B21C7C641E8C42EEDC197CC1
:1052F00001EB810102EB4101014401F8065C197CDC
:1053000001EB810102EB4101014401F8096C197CB8
:105310009AE076E0FFE7D978002972D001EB8104AA
:1053200002EB44042579667894F807C00DE000BFCD
:1053300001EB810402EB44040444491CA77B277160
:10534000E77A6770677CE771C9B25C7A641E8C4249
:10535000EEDC597A01EB810102EB4101014401F8D5
:10536000065C597A01EB810102EB4101014401F82D
:10537000096C597A01EB810102EB4101014401F80A
:1053800003CC022867D1597C002964D001EB810449
:1053900002EB4405AC1CAD79667894F807C03EE09A
:1053A0009979002957D001EB810402EB44056C1C6C
:1053B0006D79667894F807C00DE000BF01EB8104B9
:1053C00002EB44040444491CA77B2771E77A677009
:1053D000677CE771C9B21C7B641E8C42EEDC197BD2
:1053E00001EB810102EB4101014401F8065C197BEC
:1053F00001EB810102EB4101014401F8096C197BC9
:1054000022E028E001EB810402EB44040444491C3F
:10541000A77B2771E77A6770677CE771C9B29C7CCC
:10542000641E8C42EEDC997C01EB810102EB4101B0
:10543000014401F8065C997C01EB810102EB41011A
:10544000014401F8096C997C01EB810102EB4101F7
:10545000084400F803CCF0BDC9B261F31F207047C7
:105460002DE9F05F05462DED108BADF5635D0F4620
:1054700014461E464FF000089FEDFE8A0DF5805041
:10548000202280ED058A80ED068AFB492030FBF75B
:10549000F7FD0DF580504FF40071C161002181646A
:1054A0004FF0000B0121C0F810B0DFF8D0A3C164A9
:1054B00080ED108A9AF80A009FEDF1AB01287DD1AA
:1054C000FBF746FFFBF758FE9FEDEF9BB0EE4A8AD5
:1054D000F0EE6A8ABAF80E00BAF81090A0EB090054
:1054E00006F0A9FA53EC192B06F00CFB53EC182B21
:1054F00006F008FB06F034F8014642F26400684406
:1055000040F82810BAF80C00A0EB090006F093FA56
:1055100053EC192B06F0F6FA53EC182B06F0F2FABE
:1055200006F01EF841F26401694441F82800242085
:1055300004F07EF908F10108B8F5806FCADB42F289
:1055400064016944A1F580584046FFF701FC0DF560
:10555000805043F67C01C06C00900DF5805069448A
:10556000836CC269A1F11800FBF7FCF80DF1080982
:105570004A46414608F52050FBF77EF80DF580506D
:1055800001210161059806F0E7FC41EC180B049835
:1055900006F0E2FC41EC100BB0EE481AF0EE681A8F
:1055A000FFF756FA08F58051B0EE409AF0EE609A97
:1055B0004A4601F5C050FBF75FF800E084E00DF5C6
:1055C0008050006909EBC008D8F8040006F0C4FC5C
:1055D00041EC180BD8F8000006F0BEFC41EC100BB3
:1055E000B0EE481AF0EE681AFFF732FAB0EE408AD1
:1055F000F0EE608A53EC102B51EC190B06F0C2FB55
:10560000894649EC100B80469FEDA11B51EC100B15
:1056100053EC112B06F074FB1AD249EC108B9FED62
:105620009E1B51EC100B53EC112B06F06BFA9FED07
:105630009C1B53EC112B06F079F806F0CFF980B2E1
:1056400076381BE098498AF805B0012008701DE003
:1056500053EC192B51EC180B06F094FB9FED8E1BAD
:1056600053EC112B06F04EFA9FED8D1B53EC112BD2
:1056700006F05CF806F0B2F980B2EE380428E1D901
:1056800001208AF80500884803210170FCF7D3F84F
:10569000DFF8148298F80000012807D183489AF8AF
:1056A0000220018882480078FCF790FA98F8000000
:1056B000032807D17F489AF8042001887E480078A3
:1056C000FCF784FA8AF80AB09AF8050018B9FBF7D3
:1056D0003FFEFBF741FD9AF80500012803D1FBF7D7
:1056E00057FEFBF769FD4FF0000800BF6349BAF8A9
:1056F0000E00B1F81090A0EB090006F09CF99FEDA8
:10570000621B53EC112B06F0FDF99FED5D1B53EC72
:10571000112B06F0F7F905F023FF014642F2640071
:10572000684440F8281055488089A0EB090006F02D
:1057300082F99FED551B53EC112B06F0E3F99FED19
:10574000501B53EC112B06F0DDF905F009FF41F277
:105750006401694441F82800242004F069F808F144
:1057600001084FF480699FED55FB9FED56BB9FEDFF
:10577000579B9FED58AB9FED59DB9FED5AEB9FED8B
:105780005BCBC845B2DB42F264016944A1F58050AD
:10579000FFF7DEFA0DF5805043F67C01C06C0090F7
:1057A0000DF580506944836CC269A1F11800FAF7C5
:1057B000D9FF41F26401694402AA01F52050FAF7C9
:1057C0005BFF0DF5805001210161059806F0C4FBD7
:1057D00041EC180B049806F0BFFB41EC100BB0EE47
:1057E000481AF0EE681AFFF733F90DF5805043F2CE
:1057F000640180ED160BC269694402A8FAF724FE21
:105800000DF58050C06941080DF5805000F110037E
:10581000416443F2640088461A1D6844FAF7DCFFCD
:105820000DF580509FED330AD0ED050A80EE801A09
:10583000BCEEC10A10EE100A80B206F013F99FED1B
:105840002E1B53EC112B05F071FF06F0C7F817491A
:1058500002AA088042F26401694401F5C050FAF7D7
:105860000BFF0DF5805102A8096900EBC1000DF591
:10587000805145E00000000050C0000800000020FA
:10588000000000000000303F6666666666660A40FB
:1058900000000000000000000000000000807640D2
:1058A0001C2D4454FB211940000100204C01002014
:1058B00046010020500100204801002000000000A7
:1058C0000080564000000000008076C0000000000C
:1058D000008066400000000000E070400000000012
:1058E000008056C00000000000E070C00000000012
:1058F000008066C00000C8426666666666E60440D0
:105900008860406806F028FB41EC180B0DF58050CC
:105910008068006806F020FB41EC100BB0EE481ADE
:10592000F0EE681AFFF794F80DF5805043F2640129
:10593000C269B0EE408AF0EE608A694402A8FAF7C4
:1059400083FD41F210036B4443F2640003F108024B
:1059500041466844FAF740FF0DF5805090ED160B74
:1059600053EC102BB0EE480AF0EE680A51EC100B25
:1059700006F008FA1FED381B53EC112B06F0C2F8A5
:105980001FED391B53EC112B05F0D0FE41EC180B29
:105990001FED410B53EC102B06F0B2F913D21FEDA3
:1059A000420B51EC180B53EC102B06F0A9F92DD239
:1059B0001FED470B51EC180B53EC102B06F0E2F9DE
:1059C00041EC180BEBE71FED4E0B53EC102BB0EE38
:1059D000480AF0EE680A51EC100B06F057F815D2A1
:1059E000B0EE4B0AF0EE6B0A53EC102B51EC180B97
:1059F00006F04CF80AD21FED580B51EC180B53EC83
:105A0000102B05F0DFFD41EC180BE9E71FED600BF3
:105A100051EC180B53EC102B06F072F95DD2B0EE7E
:105A2000480AF0EE680A53EC1F2B51EC100B06F0FD
:105A30002DF802D201208AF80200B0EE4F0AF0EEF3
:105A40006F0A53EC102BB0EE480AF0EE680A51ECE6
:105A5000100B06F055F90CD2B0EE480AF0EE680AC9
:105A600053EC192B51EC100B06F010F801D28AF808
:105A700002B0B0EE480AF0EE680A53EC192B51EC74
:105A8000100B06F03DF90DD2B0EE480AF0EE680AB0
:105A900053EC1A2B51EC100B05F0F8FF02D2012049
:105AA0008AF80200B0EE480AF0EE680A53EC1A2BAE
:105AB00051EC100B06F024F90ED21FED890B53ECBC
:105AC000102BB0EE480AF0EE680A51EC100B05F00E
:105AD000DDFF7FD28AF802B07CE01FED930B53EC20
