:020000040800F2
:10000000F8C30020690200088B2A0008FD230008BD
:10001000892A00080D190008E548000800000000C2
:10002000000000000000000000000000E94000089F
:10003000A919000800000000EB020008C9420008EE
:10004000830200088302000883020008830200087C
:10005000830200088302000883020008830200086C
:10006000830200088302000883020008830200085C
:10007000830200088302000883020008830200084C
:10008000830200088302000883020008830200083C
:10009000830200088302000883020008830200082C
:1000A000830200088302000883020008830200081C
:1000B0008302000849430008254400088302000821
:1000C00083020008830200088302000883020008FC
:1000D000830200088302000883020008D545000857
:1000E000AD1900088302000883020008830200089B
:1000F00083020008830200088302000883020008CC
:1001000083020008830200088302000883020008BB
:1001100083020008830200088302000883020008AB
:10012000830200088302000883020008830200089B
:10013000830200088302000883020008830200088B
:10014000830200088302000883020008830200087B
:10015000830200088302000883020008830200086B
:10016000830200088302000883020008830200085B
:10017000830200088302000883020008830200084B
:10018000830200088302000800F002F800F05CF827
:100190000AA090E8000C82448344AAF10107DA45E2
:1001A00001D100F051F8AFF2090EBAE80F0013F0D8
:1001B000010F18BFFB1A43F001031847B4290100CF
:1001C000D42901000A444FF0000C10F8013B13F051
:1001D000070408BF10F8014B1D1108BF10F8015BA0
:1001E000641E05D010F8016B641E01F8016BF9D193
:1001F00013F0080F1EBF10F8014BAD1C0C1B09D1EA
:100200006D1E58BF01F801CBFAD505E014F8016B5B
:1002100001F8016B6D1EF9D59142D6D370470000ED
:100220000023002400250026103A28BF78C1FBD8FF
:10023000520728BF30C148BF0B6070471FB50CF094
:10024000B4F81FBD10B510BD00F054FF1146FFF704
:10025000F5FF0AF0C5FC00F072FF03B4FFF7F2FFF0
:1002600003BC00F073FF00000948804709480047BD
:10027000FEE7FEE7FEE7FEE7FEE7FEE7FEE7FEE756
:10028000FEE7FEE704480549054A064B70470000B3
:10029000ED42000889010008F8BD0020F8C30020E5
:1002A000F8BF0020F8BF0020EFF3108072B670474F
:1002B00080F3108870471D484FF0FF010170002047
:1002C00080F309881A48012101701A484FF08051C3
:1002D000016062B6FEE717484FF080510160704739
:1002E00014484FF080510160704772B6EFF30980F7
:1002F00028B1203880E8F00F0F490968086000B580
:100300000E4880475DF804EB0D480E490A780270EC
:1003100009480D490A680260106890E8F00F203023
:1003200080F309884EF0040E62B6704722ED00E0BB
:100330007F00002004ED00E09800002071340008E8
:100340007C0000207D000020A000002072B67047D5
:1003500062B67047EFF3108072B6704780F3108872
:100360007047B0FA80F0704790FAA0F0704730BF45
:10037000704720BF70470000DFED2E0AB5EEC00ABF
:1003800060EE200ABDEEE01A11EE100AF1EE10FA4E
:1003900038BF401E00EE100ADFED271AF7EE005AB4
:1003A000B8EEC00ADFED274A244930EEC01A21EE2C
:1003B000210AFCEEC00A10EE900A00EE900A01EB52
:1003C0008000B8EE600ADFED1E0AF0EC012A11EEA3
:1003D000210AF6EE001AB0EC013AF0EC013A20EEF8
:1003E000001A20EE216A40EE615A20EE245A21EED6
:1003F000212A90ED004A00EE602A66EE010A40EEE6
:10040000400A05EE412A70EEA55AF0EE400A41EE90
:10041000210A46EE410A25EE011A00EE641A22EE88
:10042000820A63EEA00A03EE250A44EE010A30EECA
:10043000200A704783F9223E00008043C0C40008B0
:10044000ABAAAA3EABAA2A3E9FED3A0A5FEA920CFB
:1004500053D000BFB0EC011A0B1DF0EC010A21EEE5
:10046000011A00EEA01AB5EEC01AF1EE10FAC6BFDE
:10047000F1EEC10AC1ED000A81ED000AF0EC010ABB
:10048000191DB0EC011A60EEA00A41EE010AF5EE6A
:10049000C00AF1EE10FAC6BFF1EEE00AC3ED000AA1
:1004A00083ED000AB0EC011A0B1DF0EC010A21EEFD
:1004B000011A00EEA01AB5EEC01AF1EE10FAC6BF8E
:1004C000F1EEC10AC1ED000A81ED000AB0EC011A9B
:1004D000191DF0EC010A21EE011A00EEA01AB5EE8A
:1004E000C01AF1EE10FAC6BFF1EEC10AC3ED000A60
:1004F00083ED000ABCF1010CACD112F0030208BF7D
:10050000704700BFF0EC010A0B46B0EC011A091D60
:1005100060EEA00A41EE010AF5EEC00AF1EE10FA13
:10052000C6BFF1EEE00AC3ED000A83ED000A521ED9
:10053000E8D17047000000002DE9F00700EBC10989
:10054000DDE90778D0F800A0C9F800A007EB011496
:10055000D0F804A0251FA9F10406C9F804A003EBF4
:10056000C80907F1080C00F1080402EBC8024B1E91
:1005700031D000BFF2EC011A96ED002A92ED001A7C
:1005800002EBC802B4EC010A121FF4EC012A60EE7F
:10059000210A20EE010A32EE823A02EEA10AD9EDDA
:1005A000001A43EE410A09EBC80902EE610A16ED92
:1005B000012A083E42EE210A02EE410AECEC010A51
:1005C000ACEC010AB1EE400A85ED000A45ED010AE6
:1005D000083D5B1ECED190ED000AD0ED010A07EB7D
:1005E000C10130EE600A81ED000A9FED5D0A81EDE8
:1005F000010AD0ED000A90ED011A70EE810AC7EDF4
:10060000000A87ED010ABDE8F007704770B400EBFF
:10061000C105DDE903C42D1D002904BF70BC70476E
:10062000F2EC011A95ED002A92ED001A02EBC402D9
:10063000B0EC010A121FF0EC012A60EE210A20EE54
:10064000410A32EE823A02EEA10AD3ED001A43EEDD
:10065000010A03EBC40302EE610A15ED012A083D0D
:10066000491E42EE210A02EE010AECEC010AACEC52
:10067000010AD5D170BC70472DE9F04305464469A5
:10068000807983B00F461646012809D0A3892188B6
:100690003846626800F036F9E87901284ED053E018
:1006A000AA88D5E9030307EBC20CD5F808803146C8
:1006B0000CF1040C5AB300BFB0EC011A9CED002AF7
:1006C000D0ED001A00EBC800B7EC010A001FF7ECF0
:1006D000012A521E60EE010A20EE610A32EE823AD1
:1006E00002EE810A93ED001A43EE210A03EBC803E0
:1006F00002EE410A1CED012AACF1080C42EE010A9F
:1007000002EE210AE1EC010AA1EC010AD4D194ED38
:10071000040AA38921883046626800F095FAE879D6
:1007200001281CBF03B0BDE8F083E2892188A368DB
:1007300003B03046BDE8F04300F08CB8E289218870
:100740003846A36800F086F8A868CDE90060D5E9CE
:100750000323A9883846FFF7EFFE03B0BDE8F08316
:100760000000000070B592B2DDF810C055080260BC
:100770008580184EC66006F50056DBB2066100247F
:10078000837180F807C0802A04BF102282600BD0DA
:10079000B2F5007F08BF042212D0B2F5006F14BF7B
:1007A0004FF0FF3401220BD0002B8C4641614FF0FB
:1007B000000307D001222946604600F015FC06E040
:1007C0008260F1E700222946604600F00DFC2046D9
:1007D00070BD0000CCC8000870B40025B0EC010A60
:1007E000A1F1010CF0EC010AB4EEE00AF1EE10FA0E
:1007F0003CBFB0EE600A0125ACF10104A446B4F19F
:10080000004F0ED3F0EC010AB4EEE00AF1EE10FA5C
:100810003CBFB0EE600AA1EB0C05BCF1010CF1D1BC
:1008200013E0002CC8BF00260FDD00BFF0EC010A6A
:10083000B4EEE00AF1EE10FA04D2ACEB0605B0EE2D
:10084000600A4D1B761C641EF0D182ED000A1D600B
:1008500070BC70472DE9F0014E0801244FF0000CE8
:1008600004EB51076146A6F102082CE061452AD24B
:1008700000EBCC0500EBC104D5ED000A94ED000AB5
:10088000C4ED000A85ED000AD5ED010A94ED010AD8
:10089000C4ED010A85ED010A0CEB0705CC1900EB4C
:1008A000C50500EBC404D5ED000A94ED000AC4EDC3
:1008B000000A85ED000AD5ED010A94ED010AC4EDA8
:1008C000010A85ED010A00EBC104B44400EBCC0C35
:1008D00094ED020ADCED000A891CC4ED020A8CEDDD
:1008E000000A94ED030ADCF80450E5608CED010A7F
:1008F000B3F800C089B203EB42034145B6D9BDE865
:10090000F00170472DE9F04F4FEA910C4FF00008CD
:100910004746644608EB0C0505EB0C0909EB0C0691
:1009200000EBC80A00EBC9099AED000AD9ED000AEC
:1009300099ED012A00EBC50530EE201A30EE600A71
:10094000DAED010A00EBC60608F1010870EE821A22
:1009500070EEC20A95ED002AD6ED002A641E32EE32
:10096000222A71EE022A31EE421ACAED002A95EDD2
:10097000012AD6ED012A32EE222A71EE822A71EE88
:10098000C21ACAED012A95ED012AD6ED012A96ED8B
:10099000003A4FEA470A32EE622AD5ED002A02EB0E
:1009A000CA0B72EEC32A9BED003ADBED013A21EE51
:1009B000034A01EEA34A61EE831A41EE631A85ED04
:1009C000004A30EE021A30EE420AC5ED011A02EB7F
:1009D000C70570EEE21A95ED002A70EEA20AD5ED79
:1009E000012A21EE023A0AEB070502EBC5051F4476
:1009F00001EEA23A61EE821A41EE621A89ED003AE6
:100A0000C9ED011AD5ED001A95ED011A20EE212A43
:100A100000EE812A60EEA10A40EE410A86ED002A2E
:100A2000C6ED010A7FF476AF9B044FEA134BE6460E
:100A3000BCF1040F7DD9E0464FEA9C0C4FF0000951
:100A4000CA46BCF1000F75D94FEA490404EB09030B
:100A500002EBC90502EBC40402EBC30395ED001AD7
:100A6000D5ED011A94ED000AD4ED010A93ED002AA8
:100A7000D3ED012AD94453468A4573D203EB0C04C3
:100A800004EB0C0606EB0C0500EBC30700EBC606F7
:100A900097ED003AD6ED003A96ED015A00EBC4040A
:100AA00073EE234A33EE633AD7ED013A00EBC50506
:100AB00033EE854A73EEC53A94ED005AD5ED005AEF
:100AC00035EE255A74EE855A74EEC54AC7ED005AC4
:100AD00094ED015AD5ED015A35EE255A74EE055ABA
:100AE00034EE454AC7ED015A94ED015AD5ED015A4D
:100AF00095ED006A35EE655AD4ED005A75EEC65A8A
:100B000024EE806A04EE206A24EE004A04EEE04AF5
:100B100084ED006A73EEE54A73EEA53A84ED014A6E
:100B200033EE054A33EE453A24EE015A04EEA15A5B
:100B300001E026E01BE064EE814A86ED005A434462
:100B40008B4244EE614A23EE024A03EEA24A63EE70
:100B5000823AC6ED014A43EE623A85ED004AC5EDA0
:100B6000013A8BD30AF1010AE245FFF46DAF4FEA77
:100B70008B434FEA9E0E4FEA134BBEF1040F3FF634
:100B80005AAFA1EB0C0100224B1C4FEA9C04002B36
:100B90008CBF1F46BDE8F08F11190E19331900EBF9
:100BA000C20500EBC60695ED000AD6ED000A95EDEC
:100BB000012A96ED011A70EE201A70EE600A32EEEC
:100BC000010A00EBC10100EBC30332EE411A91EDC3
:100BD000002AD3ED002A6244974232EE222A71EEB7
:100BE000822A31EEC22AC5ED002AD1ED011AD3EDD9
:100BF000012A71EEA21A70EE212AC5ED012A70EECB
:100C0000612A91ED010AD3ED011A93ED003A70EEDD
:100C1000611A91ED000A81ED002AC1ED012A30EE42
:100C2000430A30EEA12A70EEE10A71EE401A31EE6D
:100C3000000A86ED002AC6ED011AC3ED000A83ED15
:100C4000010AA9D8BDE8F08F2DE9F04F4FEA910CC9
:100C50004FF000084746644608EB0C0505EB0C0A0C
:100C60000AEB0C0600EBC80900EBCA0AD9ED000A32
:100C70009AED001ADAED012A00EBC50570EE811A33
:100C800070EEC10A99ED011A00EBC60608F10108E1
:100C900031EE222A31EE621AD5ED002A96ED003AA5
:100CA000641E72EE832A31EEA23A71EEE21A89EDE9
:100CB000003AD5ED012A96ED013A72EE832A32EE22
:100CC000223A32EE622A89ED013AD5ED012A96EDFB
:100CD000013AD6ED003A4FEA470972EEC32A95ED84
:100CE000003A02EBC90B33EE633ADBED003A9BEDC1
:100CF000014A61EEA34A42EE444A22EE232A01EE63
:100D0000842AC5ED004A70EEE21A70EEA20A85ED63
:100D1000012A02EBC70531EE032AD5ED002A31EE98
:100D2000431A95ED013A61EEA23A09EB070502EB91
:100D3000C5051F4442EE433A22EE222A01EE832AE1
:100D4000CAED003A8AED012AD5ED001A95ED012A87
:100D500060EEA12A41EE422A21EE211A00EE821A0B
:100D6000C6ED002A86ED011A7FF476AF9B044FEAA8
:100D7000134BE646BCF1040F7DD9E0464FEA9C0CCC
:100D80004FF00009CA46BCF1000F75D94FEA49047B
:100D900004EB090302EBC90502EBC40402EBC30335
:100DA000D5ED001A95ED012AD4ED000A94ED011A53
:100DB000D3ED002A93ED013AD94453468A4573D2C4
:100DC00003EB0C0404EB0C0606EB0C0500EBC3076D
:100DD00000EBC606D7ED003A96ED004AD6ED015A73
:100DE00000EBC40433EE845A73EEC43A97ED014A23
:100DF00000EBC50574EE254A34EE654AD4ED005A81
:100E000095ED006A75EE865A35EE256A35EE655A1F
:100E100087ED006AD4ED015A95ED016A75EE865AA8
:100E200034EEA56A74EEE54A87ED016AD4ED015A05
:100E300095ED016AD5ED006A75EEC65A94ED006A2B
:100E400036EE666A65EE206A44EEC16A64EEA04A38
:100E500045EE014AC4ED006A34EE065A34EE464AC5
:100E6000C4ED014A73EEE54A73EEA53A64EEA15A69
:100E700045EE425A01E026E01BE025EE215AC6ED80
:100E8000005A43448B4204EE825A63EEA24A44EE77
:100E9000434A24EE224A86ED015A03EE834AC5ED09
:100EA000004A85ED014A8BD30AF1010AE245FFF4BD
:100EB0006DAF4FEA8B434FEA9E0E4FEA134BBEF1E4
:100EC000040F3FF65AAFA1EB0C0100224B1C4FEA76
:100ED0009C06002B8CBF1F46BDE8F08F91198D1921
:100EE000AB1900EBC20400EBC505D4ED000AD5ED4B
:100EF000001AD4ED012A95ED012A30EEA11A70EE08
:100F0000E11A72EE820A00EBC10100EBC30332EE7C
:100F1000C22AD1ED002A93ED003A6244974272EE64
:100F2000832A31EE223A71EE622A23EE003A62EE13
:100F3000802A84ED003A91ED011A93ED013A31EEE9
:100F4000031A30EE813A23EE003A84ED013A30EE96
:100F5000C13AD1ED010A93ED011AD3ED003A30EE1A
:100F6000C11AD1ED000AC1ED002A63EE002A70EE2D
:100F7000E30AC1ED012A71EEC12A31EE811A72EE47
:100F8000201A72EE600A22EE802A21EE001A61EE2B
:100F9000801A85ED002A60EE800AC5ED011A83ED06
:100FA000001AC3ED010A99D8BDE8F08F30B50446A8
:100FB0000D4680782188A389626801280DD02846D3
:100FC000FFF7A0FCE078012818BF30BDE289218836
:100FD0002846A368BDE830403CE494ED040A284666
:100FE000FFF732FEEEE7000010B401801B4C4460B6
:100FF00082704FF0000CC370102925D040291BD0FF
:10100000B1F5807F10D0B1F5806F18BF4FF0FF3C75
:1010100002D010BC6046704701218181C181104916
:101020009FED100A816016E004218181C1810E4983
:101030009FED0E0A81600EE010218181C1810C4973
:101040009FED0C0A816006E040218181C1810A493F
:101050009FED0A0A816080ED040ADAE7CC080108F6
:10106000CC2801080000803AD22801080000803B0B
:10107000EA2801080000803C4A2901080000803D60
:1010800010B5203AC0F00B80B1E81850203AA0E823
:101090001850B1E81850A0E81850BFF4F5AF5FEA57
:1010A000027C24BFB1E81850A0E8185044BF18C90A
:1010B00018C0BDE810405FEA827C24BF51F8043BB1
:1010C00040F8043B08BF7047D20728BF31F8023B05
:1010D00048BF11F8012B28BF20F8023B48BF00F899
:1010E000012B7047704770477047000000487047F9
:1010F00098BD00207546FFF7F9FFAE46050069462A
:10110000534620F00700854618B020B5FFF7BAF81F
:10111000BDE820404FF000064FF000074FF00008F8
:101120004FF0000B21F00701AC46ACE8C009ACE879
:10113000C009ACE8C009ACE8C0098D467047044658
:10114000AFF300802046FFF788F870470149182068
:10115000ABBEFEE72600020010B5064C01220023BC
:101160001146204600F09AF92046BDE8104000F0F4
:10117000CFB900000020014010B5064C0023012229
:101180000C21204600F08AF92046BDE8104000F00E
:10119000BFB900000020014010B5064C0023012219
:1011A0000421204600F07AF92046BDE8104000F006
:1011B000AFB900000020014010B5064C0023012209
:1011C0000721204600F06AF92046BDE8104000F0F3
:1011D0009FB900000020014010B5064C00230122F9
:1011E0000921204600F05AF92046BDE8104000F0E1
:1011F0008FB900000020014010B5064C00230122E9
:101200000D21204600F04AF92046BDE8104000F0CC
:101210007FB900000021014010B5064C00230122D7
:101220000E21204600F03AF92046BDE8104000F0BB
:101230006FB900000021014010B5064C00230122C7
:101240000F21204600F02AF92046BDE8104000F0AA
:101250005FB900000021014010B5064C00230122B7
:101260000321204600F01AF92046BDE8104000F0A6
:101270004FB900000022014070B59CB001212F48F9
:1012800002F0A4FD01214FF4E06002F0C3FD4FF035
:10129000007000902A4801902A4802A900240125E4
:1012A00031C1E802CDE90640800008904011099064
:1012B0000AA90594400231C1234E0D946946304677
:1012C0000E9400F047FB0121304600F039FB03206B
:1012D0008DF8680019908DF86B4019A91B4800F033
:1012E00025FC15941694179415A8189400F07AF814
:1012F0000F948DF8404011941394114C8DF8415087
:101300004C3C8DF850500FA9204600F0A1F8002366
:1013100001220821204600F0C1F80121204600F0FA
:1013200083F80121204600F075F80121204600F0E5
:101330004FF8204600F0ECF81CB070BD02004000F1
:101340004C21014012000020406402400004024091
:1013500010B5064C002301220A21204600F09EF819
:101360002046BDE8104000F0D3B800000022014044
:1013700010B5064C002301220B21204600F08EF808
:101380002046BDE8104000F0C3B800000022014034
:1013900010B5064C002301220C21204600F07EF8F7
:1013A0002046BDE8104000F0B3B800000022014024
:1013B00010B5064C002301220221204600F06EF8F1
:1013C0002046BDE8104000F0A3B800000022014014
:1013D0000029816802D041F0010101E021F0010102
:1013E00081607047094B10B51A68094902EA010289
:1013F000D0E9001441EA0401D0E9024044EA0004C3
:1014000041EA040141EA0201196010BD04230140D0
:10141000E030FCFF0029816802D041F4807101E0D6
:1014200021F48071816070470029816802D041F405
:10143000007101E021F4007181607047C06C80B2DE
:1014400070470246002012680A4200D0012070470F
:1014500030B542680F4B0C791A400B6842EA0422FF
:101460001343436082680C4B4D791A40D1E9034322
:1014700023438C6844EA4504234313438360C26AD0
:10148000097D22F47002491EC9B242EA0151C162CB
:1014900030BD0000FFFEFFFCFDF7FFC070B5072563
:1014A00009290AD9C468A1F10A0606EB4606B54027
:1014B000AC43B3401C43C46007E0046901EB410640
:1014C000B540AC43B3401C4304611F23072A09D233
:1014D000446B521E02EB820293409C4391400C43AA
:1014E000446370BD0D2A09D2046BD21F02EB820245
:1014F00093409C4391400C43046370BDC46A0D3A11
:1015000002EB820293409C4391400C43C46270BD45
:10151000816841F0804181607047000010B5154C32
:10152000012803D0022811D0002010BD072301227A
:1015300005212046FFF7B2FF2046FFF7E9FF022111
:101540002046FFF77EFF0028F9D00EE00723012296
:1015500006212046FFF7A2FF2046FFF7D9FF022110
:101560002046FFF76EFF0028F9D02046BDE8104066
:10157000FFF764BF0020014000F06CBF10B50446C7
:1015800001F030F8A02000F0EFFF01F07FF8200A12
:1015900000F0EAFF01F07AF8E0B200F0E5FF01F0B8
:1015A00075F801F01FF8A12000F0DEFF01F06EF8E1
:1015B000002000F09DFF044601F03EF8204610BDDB
:1015C00070B504460D4601F00DF8A02000F0CCFFE8
:1015D00001F05CF8200A00F0C7FF01F057F8E0B214
:1015E00000F0C2FF01F052F8284600F0BDFF01F004
:1015F0004DF801F021F8BDE870400A2008F056BA15
:101600007047000038B5002001F05EFB1C4C6062A2
:10161000002001F059FBA062002001F055FB20637F
:10162000002001F043FC6063002001F04DFBE0620C
:10163000002001F03BFCA0636A4612A10A2001F0E1
:10164000C1FD0523124A0021124801F015FD0423B3
:10165000114A0021114801F00FFD0323104A002117
:10166000104801F009FD02230F4A00210F4801F044
:1016700003FD01230E4A00210E4801F0FDFC38BD98
:10168000000000205374617274205461736B000079
:10169000A4090020C1160008A4AA0020A917000868
:1016A000A4AB0020E1160008A40A002009180008D5
:1016B000A4AC00205540000802F098B87047000024
:1016C000064C00BF0AF09AF8207A08B908F068F8CA
:1016D00008F098FF642008F0E9F9F3E70000002023
:1016E0001CB5274C274E002540F2DC57A07A012874
:1016F0000FD101220021104609F016FE012200211F
:10170000022009F011FE01220021032009F00CFE45
:10171000A572207A10B9032001F052FE207A012828
:1017200029D119496F200870606B01F045FC608B6E
:10173000C8B1401E60834FF02F08CDE90058012347
:1017400070781A46002109F0C5FACDE90058707882
:1017500002230122002109F0BDFA608B012802D189
:101760000220E07165834FF42040FFF707FF044932
:10177000707049310870384608F098F9B6E70000F3
:1017800000000020B6AC00204A01002010B501F096
:1017900057FCFFF737FFBDE810400A2001F010BEEC
:1017A000704702F02BB8000008B5154C00256A46BA
:1017B0000021606B01F0A0FB207A0128F7D1E07ACC
:1017C000012803D10F4808F07BFEE5720D4BA3F111
:1017D000140202F12801A1F5987009F0F5FB0949FE
:1017E0001439A1F5847008F09DFC064BA3F1140296
:1017F00002F12801A1F5987003F010FFD7E700006F
:1018000000000020A0020020DFF8F0A008B5DFF8FB
:10181000E890AAF11C043A4E4FF4805B4FF01E088A
:1018200004F149051427A079012823D159463548E8
:1018300000F0CAF901281DD12078D8B989F80080B4
:10184000012020702879012804D1012200211046AE
:1018500009F06AFD6879012804D1012200210220E3
:1018600009F062FDA879012804D10122002103209A
:1018700009F05AFDA07948BB5946224800F0A4F966
:1018800020BB2078012821D189F800800020207019
:10189000287938B99AF8000020B90122114610467B
:1018A00009F042FD687938B99AF8010020B901229F
:1018B0001146022009F038FDA87938B99AF80200DB
:1018C00020B901221146032009F02EFD207A0128BB
:1018D00002D1022001F074FD6A460021606A01F025
:1018E00019FA09F03FFAE7824FF42040FFF746FE6D
:1018F0007070287097E70000510100201C00002044
:10190000B6AC00200000024001F08ABFFEE770B5CF
:10191000292002F033FC012002F030FC032002F009
:101920002DFC002500240021284603F00DF8641C3E
:10193000E4B2042CF7D36D1CEDB2162DF2D370BDBA
:101940000029016802D041F0010101E021F001010C
:101950000160704730B50368124ACC6813400A68CA
:101960002243D1E905452C432243CC6922430C6A2A
:1019700022434C6A22438C6A22434C6B22438C6B79
:1019800022431A430260426922F00703D1E90B2483
:1019900022431A4342610A6942604A688260896848
:1019A000C16030BD3F801CF07047000070B501F091
:1019B00051F94FF48055284600F06EF8C8B14FF445
:1019C0007A7008F091F80E4E2946304600F0FCF887
:1019D0000C4C012803D1207808B90120A0712946B8
:1019E000304600F0F1F820B92078012801D100201C
:1019F000A071284600F008F8BDE8704001F036B943
:101A0000000002400000002001490860704700000B
:101A1000143C014030B5012185B0084602F0D6F9EA
:101A20000121880302F0F6F900248DF810404FF4EC
:101A300080558DF8134003A91248039500F076F8FD
:101A40000C21002002F052FB8DF8044010208DF88C
:101A50000500012400958DF80640684600F02CF83A
:101A600028208DF808008DF809408DF80A408DF87F
:101A70000B4002A801F00EF8284600F005F805B06A
:101A800030BD00000000024002490A6802430A60BB
:101A900070470000103C0140064A014600201268D1
:101AA000044B0A4014331B680B4202D0002A00D0BA
:101AB00001207047003C014030B51B498379026822
:101AC00063B30B6893430B600A1D13680468A34358
:101AD000136002790A441368046823431360124AAE
:101AE000083213680468A3431360131D1C6805685B
:101AF000AC431C6090F805C0BCF1100F05D06144E8
:101B00000A68006802430A6030BD11680468214316
:101B10001160196800680143196030BD00790844FC
:101B200001689143016030BD003C0140F0B50022E6
:101B300001234FF0030C00BF0D6803FA02F42540A7
:101B4000A5422DD1066854000CFA04F5AE43066098
:101B50000E790768A6403E4306600E79012E01D03B
:101B6000022E12D18668AE4386604D798668A54004
:101B700035438560456803FA02F6B543456045681C
:101B80008E799640B6B235434560C56856000CFA6A
:101B900006F7BD43C560CD79A540C4682543C5603F
:101BA000521C102AC8D3F0BD4B07DB0E9A40C9085F
:101BB00010B500EB8100016A0F249C40A143016233
:101BC000016A1143016210BD0246002012690A42F7
:101BD00000D00120704741837047018370470000A7
:101BE0002DE9F041044601210C2002F0ADFE354DF7
:101BF0002878012803D10121062002F0A5FE2878CB
:101C000018B90121052002F09FFE01210F2002F0EA
:101C10009BFE0421072002F097FE2B4D2878012817
:101C200003D10421084602F08FFE2878022803D150
:101C30000221042002F088FE2878032803D1012124
:101C4000042002F081FE42F21077B4FBF7F51E4E3D
:101C5000A8B2B61C06EB40010222102002F044FE9E
:101C600007FB15404FF47A75B0FBF5F006EB400129
:101C70000222122002F038FEB4FBF5F005FB104002
:101C80006425B0FBF5F006EB40010222142002F0BF
:101C90002BFEB4FBF5F005FB10400A25B0FBF5F078
:101CA00006EB40010222002002F01EFEB4FBF5F01C
:101CB00005FB104006EB4001BDE8F0410222104652
:101CC00002F012BE00000020040100202DE9F041C6
:101CD00004460E46174604210C2002F035FE012171
:101CE0000E2002F031FE0121112002F02DFE012113
:101CF0000F2002F029FE414D2878012803D101214F
:101D0000062002F021FE287818B90121052002F0F2
:101D10001BFE3B4D2878012807D10421084602F01C
:101D200013FE0121072002F00FFE2878022807D1B8
:101D30000221042002F008FE0221072002F004FE26
:101D40002878032807D10121042002F0FDFD042199
:101D5000072002F0F9FD4FF06408B4FBF8F5012FFD
:101D600001D04FB10CE0264802222A3000EB450199
:101D7000102002F0B9FD03E00521112002F0E4FD7E
:101D800008FB15400A25B0FBF5F04746DFF87080E8
:101D9000022208F1020808EB4001122002F0A4FD23
:101DA000B4FBF5F005FB1040B0FBF5F105FB1100AD
:101DB00008EB40010222142002F096FDB6FBF7F476
:101DC000022208EB4401104602F08EFD07FB14606E
:101DD000B0FBF5F008F1140404EB400102220A20E4
:101DE00002F082FDB6FBF5F005FB106004EB40014C
:101DF000BDE8F0410222082002F076BD000000207C
:101E0000040100202DE9F041044601210C2002F0DC
:101E10009BFD334D2878012803D10121062002F0D3
:101E200093FD287818B90121052002F08DFD0121CC
:101E30000F2002F089FD2B4D2878012803D10421C1
:101E4000084602F081FD2878022803D102210420EF
:101E500002F07AFD2878032803D10121042002F042
:101E600073FD42F21077B4FBF7F51E4EA8B2B61C14
:101E700006EB40010222102002F036FD07FB154060
:101E80004FF47A75B0FBF5F006EB40010222122008
:101E900002F02AFDB4FBF5F005FB10406425B0FB11
:101EA000F5F006EB40010222142002F01DFDB4FB08
:101EB000F5F005FB10400A25B0FBF5F006EB4001FC
:101EC0000222002002F010FDB4FBF5F005FB1040EB
:101ED00006EB4001BDE8F0410222104602F004BDCD
:101EE00000000020040100202DE9F04104460D46C9
:101EF0000821072002F028FD284E3078012803D160
:101F00000121062002F020FD307818B901210520BA
:101F100002F01AFD01210F2002F016FD4FF06408B7
:101F2000B4FBF8F61E4F022207EB4601102002F028
:101F3000DBFC08FB16400A26B0FBF6F007EB40017D
:101F40000222122002F0D0FCB4FBF6F006FB104097
:101F500007EB40010222142002F0C6FCB5FBF8F4A6
:101F6000022207EB4401104602F0BEFC08FB1450AD
:101F7000B0FBF6F007F1140404EB400102220A2042
:101F800002F0B2FCB5FBF6F006FB105004EB40018A
:101F9000BDE8F0410222082002F0A6BC00000020AB
:101FA000060100202DE9F041044605210F2002F032
:101FB000CBFC324D2878012803D10121062002F004
:101FC000C3FC287818B90121052002F0BDFC2C4D76
:101FD0002878012803D10121072002F0B5FC2878D8
:101FE000022803D10221072002F0AEFC2878032842
:101FF00003D10421072002F0A7FC42F21077B4FBC2
:10200000F7F51F4EA8B2B61C06EB400102221420C1
:1020100002F06AFC07FB15404FF47A75B0FBF5F04F
:1020200006EB40010222002002F05EFCB4FBF5F05A
:1020300005FB10406425B0FBF5F006EB40010222E1
:10204000104602F051FCB4FBF5F005FB10400A25E8
:10205000B0FBF5F0143606EB40010222284602F0F0
:1020600043FCB4FBF5F005FB104006EB4001BDE876
:10207000F0410222082002F037BC000000000020DE
:10208000040100202DE9F041044601210F2002F057
:102090005BFC04210A2002F057FC02221A490820A6
:1020A00002F022FC4FF47A77B4FBF7F5164EE8B253
:1020B0001E3E06EB40010222122002F015FC07FB37
:1020C00015406425B0FBF5F0C0B206EB40010222DA
:1020D000142002F009FCB4FBF5F005FB10400A25C2
:1020E000B0FBF5F006EB40010222002002F0FCFB01
:1020F000B4FBF5F005FB104006EB4001BDE8F041F4
:102100000222104602F0F0BB2401002070B5044604
:1021100004210C2002F018FC01210F2002F014FC15
:102120006426B4FBF6F51049E8B201EB4001022247
:10213000104602F0D9FB06FB15400A25B0FBF5F06E
:10214000094E0222143606EB4001284602F0CCFB71
:10215000B4FBF5F005FB104006EB4001BDE8704014
:102160000222082002F0C0BB0601002070B5044620
:102170000821062002F0E8FB0821072002F0E4FB1A
:1021800001210F2002F0E0FB6426B4FBF6F51048B5
:10219000022200EB4501104602F0A6FB06FB1540AB
:1021A0000A25B0FBF5F00A4E0222143606EB400178
:1021B000284602F099FBB4FBF5F005FB104006EB56
:1021C0004001BDE870400222082002F08DBB0000F3
:1021D000060100202DE9F04104460D4604210E20A1
:1021E00002F0B2FB08210C2002F0AEFB284E307842
:1021F000012803D10121062002F0A6FB307818B98E
:102200000121052002F0A0FB01210F2002F09CFB20
:102210004FF06408B4FBF8F61E4F022207EB4601AC
:10222000102002F061FB08FB16400A26B0FBF6F016
:1022300007EB40010222122002F056FBB4FBF6F03D
:1022400006FB104007EB40010222142002F04CFB79
:10225000B5FBF8F4022207EB4401104602F044FB00
:1022600008FB1450B0FBF6F007F1140404EB400136
:1022700002220A2002F038FBB5FBF6F006FB1050F4
:1022800004EB4001BDE8F0410222082002F02CBB23
:10229000000000200601002070B5044608210D2032
:1022A00002F052FB1A4D2878012803D101210620A3
:1022B00002F04AFB287818B90121052002F044FBFE
:1022C00001210F2002F040FB6426B4FBF6F5114813
:1022D000022200EB4501104602F006FB06FB15400A
:1022E0000A25B0FBF5F00B4E0222143606EB400136
:1022F000284602F0F9FAB4FBF5F005FB104006EBB6
:102300004001BDE870400222082002F0EDBA000052
:1023100000000020060100201CB50121022001F070
:1023200055FD4FF43870009001208DF80400002016
:102330008DF806000220124C8DF8050069462046F3
:10234000FFF7F4FB61152046FFF747FC20212046EC
:10235000FFF743FC40212046FFF73FFC8021204649
:10236000FFF73BFC022001F009FF292001F006FFE6
:10237000012001F003FF032001F000FF1CBD00005D
:10238000000402402DE9F0411A4E054670780128FC
:102390002DD10020184F70704FF400784146384618
:1023A000FFF719FC002440213846FFF714FC2806EB
:1023B0004FF08001384602D4FFF70DFC01E0FFF733
:1023C0000CFC032007F090FB40213846FFF705FC8A
:1023D0006806641C050EE4B2082CE4D30A2007F05A
:1023E00083FB41463846FFF7F8FB01207070BDE8DB
:1023F000F08100000401002000040240FEE700001C
:102400007CB5134E4FF4005529463046FFF7E3FBE9
:1024100001208DF8040002206C008DF80500009466
:1024200069463046FFF782FB21463046FFF7D3FB73
:10243000022007F059FB29463046FFF7CEFB022069
:1024400007F052FB29463046FFF7C5FB7CBD000074
:10245000000402401CB50121022001F0B7FC4FF43A
:10246000E040009001208DF8040002200A4C8DF815
:10247000050069462046FFF759FBA1142046FFF7E7
:10248000AAFB4FF400512046FFF7A7FB4FF4804111
:102490002046FFF7A2FB1CBD000402407CB5134E92
:1024A0004FF4005529463046FFF795FB01208DF883
:1024B000040002206C008DF8050000946946304647
:1024C000FFF734FB21463046FFF787FB022007F079
:1024D0000BFB29463046FFF780FB022007F004FB88
:1024E00029463046FFF777FB7CBD00000004024020
:1024F0002DE9FC4700241B4E80464FF480478DF8A1
:10250000044000978DF8074069463046FFF70EFB00
:102510000025B9467F1039463046FFF75CFB0220A4
:1025200007F0E2FA39463046FFF757FB6006040E23
:1025300049463046FFF748FB08B1641CE4B201206D
:1025400007F0D2FA6D1CEDB2082DE4D3B8F1000FFC
:1025500004D0FFF755FF2046BDE8FC87FFF79EFF3C
:10256000F9E70000000402402DE9FC470546012080
:102570008DF8040002201A4E4FF480478DF80500B4
:10258000009769463046FFF7D1FA4FF400584146AC
:102590003046FFF720FBB946002447462806494647
:1025A000304602D4FFF717FB01E0FFF716FB680681
:1025B000050E022007F098FA39463046FFF70DFB6A
:1025C000022007F091FA39463046FFF704FB02205B
:1025D00007F08AFA641CE4B2082CDFD3BDE8FC875C
:1025E000000402407CB501208DF804000220114D4A
:1025F0004FF480448DF80500009469462846FFF7A3
:1026000095FA21462846FFF7E8FA66103146284633
:10261000FFF7E3FA032007F067FA21462846FFF7A1
:10262000DAFA032007F060FA31462846FFF7D3FABA
:102630007CBD0000000402407CB501208DF8040040
:102640000220114D4FF480448DF805000094694636
:102650002846FFF76BFA661031462846FFF7BBFAAB
:1026600021462846FFF7B7FA032007F03DFA314626
:102670002846FFF7B2FA21462846FFF7AEFA0320B4
:1026800007F032FA7CBD0000000402402DE9FC4155
:102690000024184E4FF480458DF8044000958DF8C5
:1026A000074069463046FFF741FA29463046FFF7B2
:1026B00094FA012007F018FA6F1039463046FFF7F8
:1026C0008CFA012007F010FA08E0641CE4B2FA2C3E
:1026D00004D9FFF7B1FF0120BDE8FC81294630464F
:1026E000FFF772FA0028F0D139463046FFF773FA47
:1026F0000020F1E70004024002494AF6AA200860DF
:102700007047000000300040054A45F25553136001
:1027100050609160580010604CF6CC4010607047DB
:10272000003000402DE9F0479CB001215E4801F0E7
:102730004DFB01214FF4E06001F06CFB4FF0806035
:1027400000905A4801900125594802A9002431C13E
:1027500006A8EE026F034FF480784FF40039059419
:10276000A0E8D003CDE90B45DFF848A10D946946F8
:1027700050460E94FFF7EEF801215046FFF7E0F8BF
:102780004D4802A9CDE900404948DFF828A1801C46
:1027900031C106A80594A0E8D003CDE90B45AAF104
:1027A000180A0D94694650460E94FFF7D3F801219C
:1027B0005046FFF7C5F868060090404801903C4835
:1027C00002A9001D31C106A80594A0E8D003394E26
:1027D000CDE90B4518360D94694630460E94FFF747
:1027E000B9F801213046FFF7ABF83F2003261590DA
:1027F0008DF858608DF85B4015A93148FFF796F9C0
:10280000FE2015908DF858608DF85B4015A92D4875
:10281000FFF78CF917941894199417A81A94FEF7D7
:10282000E1FD0F948DF84040119413941F4C8DF8E6
:1028300041504C3C8DF850500FA92046FEF708FE41
:102840001E4D0FA94C3D2846FEF702FE1A4E0FA959
:102850004C3E3046FEF7FCFD01212046FEF7E4FD2C
:1028600001212846FEF7E0FD01213046FEF7DCFDA0
:1028700001212046FEF7CEFD01212846FEF7CAFDC4
:1028800001213046FEF7C6FD01212046FEF7A0FDDE
:1028900001212846FEF79CFD01213046FEF798FDF8
:1028A0001CB0BDE8F0870000050040004C2201404C
:1028B0000E000020286402404C2001404C210140C1
:1028C00000080240000002401CB50121084601F04A
:1028D0007DFA4FF4C050009000208DF80400694646
:1028E0000148FFF723F91CBD0000024070B5040049
:1028F0000D46164601D0032C07D1012D05D10EB18E
:10290000032E02D13320FFF73DFD012C03D064B12B
:10291000032C0AD012E00DB1032D15D10EB1032EF8
:1029200012D12D20FFF72EFD0EE00DB1032D05D1A4
:102930000EB1032E02D12B20FFF724FD012C03D072
:102940005CB1032C09D00FE0012D13D10EB1032E81
:102950002CD13520FFF716FD28E0012D04D1012EE2
:1029600002D15320FFF70EFD012C03D04CB1032CF4
:1029700007D00EE00DB1032D18D1012E16D14D2038
:10298000E8E70DB1032D04D1012E02D14B20FFF752
:10299000F9FC012C0AD0022C0ED1022D0CD1022EF2
:1029A0000AD10120BDE87040FFF7ECBC012D03D136
:1029B000012E01D1D520F5E770BD70B504000D469C
:1029C000164601D0032C07D1012D05D10EB1032EDF
:1029D00002D1B320FFF7D6FC012C03D064B1032C45
:1029E0000AD012E00DB1032D15D10EB1032E12D174
:1029F000AD20FFF7C7FC0EE00DB1032D05D10EB1E0
:102A0000032E02D1AB20FFF7BDFC012C03D05CB13B
:102A1000032C09D00FE0012D13D10EB1032E2CD1C0
:102A2000B520FFF7AFFC28E0012D04D1012E02D123
:102A3000D320FFF7A7FC012C03D04CB1032C07D007
:102A40000EE00DB1032D18D1012E16D1CD20E8E7EF
:102A50000DB1032D04D1012E02D1CB20FFF792FC42
:102A6000012C0AD0022C0ED1022D0CD1022E0AD13B
:102A70008120BDE87040FFF785BC012D03D1012EF8
:102A800001D1D520F5E770BDFEE770474FF4A06097
:102A900000F032B870B50F21C478027801234FF0EE
:102AA000E026E4B1124C246804F4E064C4F5E06468
:102AB000C4F30724C4F10405E1404478AC408578B0
:102AC0000D4025430B4C29011155007800F01F01E2
:102AD0008B40400906EB8000C0F8003170BD02F069
:102AE0001F008340500906EB8000C0F8803170BDA4
:102AF0000CED00E000E400E00249084302490860F0
:102B0000704700000000FA050CED00E0704700007F
:102B100070B505000E46144605D036B10E488078D3
:102B200028B112200DE004200BE00C2009E02878E9
:102B3000012808D0022806D0032804D0042802D097
:102B40000120107070BDFDF7AFFB6E61FDF7B0FBAB
:102B50000020207070BD00007800002030B587B0E4
:102B600000F070F82A48002404638470C470047272
:102B7000C471C460C461846144614470847121463D
:102B800000F134025454491CC9B20829FAD3047123
:102B900044718462046200F071FF00F043FF00F0B2
:102BA0001BFF00F0ADFF00F0D1FF02AA032520209B
:102BB00031C218494FF6FF70CDE9000101F17C02E6
:102BC0003F230021144800F09FFA05AA13A13F20DB
:102BD00000F0F8FA02AA402031C214494FF6FE7004
:102BE000CDE9000101F1FC023E230021104800F074
:102BF0008BFA05AA0FA13E2000F0E4FA00F0E0FCF9
:102C000000F026F807B0BDE83040FFF77FBF0000B6
:102C100078000020A0AF0020093D000875432F4F29
:102C2000532D49492049646C65000000A0AE002086
:102C3000253D000875432F4F532D4949205374619A
:102C400074000000014900200880704774000020D3
:102C5000704700000449C879012804D18878FF280A
:102C600001D2401C887070477800002070B5144D68
:102C7000E879012822D1FDF717FB0446A87820B196
:102C8000401E10F0FF00A87013D1E87888B900F05A
:102C9000A1FF0C48697950F82100A8622A79914275
:102CA00007D0C16B491CC163E868401CE860FDF7B0
:102CB00017FB2046BDE87040FDF7FABA70BD000072
:102CC0007800002020B0002070B505460E4800783E
:102CD00008B1002070BDFDF7E7FA01460B48046813
:102CE0000CB1626802600846FDF7E2FA4CB10120BF
:102CF00020700020208106A065606061204600F001
:102D000061FE204670BD00007A000020880000208F
:102D10003F0000002DE9F04705008846144604D026
:102D20002878012803D001200AE0042008E02C487C
:102D3000007808B1022003E02A48007820B10D2075
:102D400010700020BDE8F087FDF7AEFA6E68074608
:102D500000213EB1884638466960FDF7A9FA84F83B
:102D600000803AE0DFF880A08946DAF8000010F829
:102D7000342F42F002020270417040F8048C284661
:102D800000F0F2FD3846FDF793FA00F0FFFEFDF784
:102D90008BFA0746DAF8000090F8351031B10229B5
:102DA00008D0294600F0B0FD0A2004E0466A84F805
:102DB000009001E00E202070DAF80010384601F192
:102DC0001C0181F8189081F81990C1F80090C1F8A1
:102DD0000490C1F80890FDF76BFA3046B2E70000A6
:102DE0007A0000207B0000209800002070B50400CD
:102DF0000D4605D035B12078012805D0012070BDE1
:102E0000042070BD032070BDFDF74EFA0646A07A7F
:102E100058B1002302222946204600F039FD3046F1
:102E2000FDF746FA00F0B2FE0AE0606820B13046D5
:102E3000FDF73EFA142070BD30466560FDF738FAA4
:102E4000002070BD10B5094CE07901280CD1FDF7C8
:102E50002BFAA17821B9E178FF2901D2491CE17050
:102E6000BDE81040FDF724BA10BD00007800002036
:102E700010B50D4CE079012814D1FDF715FAE17871
:102E800031B1491E11F0FF01E17001D1A17819B1F2
:102E9000BDE81040FDF70CBAFDF70AFABDE8104096
:102EA00000F074BE10BD00007800002070B505462B
:102EB0000E48007808B1002070BDFDF7F5F9014615
:102EC0000B4804680CB1626802600846FDF7F0F92F
:102ED0004CB10320207025810020606005A0606156
:102EE000204600F06FFD204670BD00007A000020F3
:102EF000880000203F0000002DE9F04705008846CB
:102F0000144604D02878032803D001200AE00420C6
:102F100008E02648007808B1022003E02448007841
:102F200018B10D201070BDE8F087FDF7BDF9064619
:102F30002889002730B1401E28813046FDF7B8F9B6
:102F40002770F0E7DFF86C90D9F8000010F8341F14
:102F500041F001010170477040F8048C284600F0F0
:102F600003FD3046FDF7A4F900F010FEFDF79CF9D3
:102F70000646D9F8000090F8351031B1022906D084
:102F8000294600F0C1FC0A2002E0277001E00E2073
:102F90002070D9F8000000F11C0007764776076022
:102FA00047603046BDE8F047FDF782B97A0000205F
:102FB0007B0000209800002070B5040004D0207829
:102FC000032803D0012070BD042070BDFDF76CF90B
:102FD0000546A07A58B1002301221946204600F088
:102FE00057FC2846FDF764F900F0D0FD09E0208980
:102FF0004FF6FF71884206D2401C20812846FDF71B
:1030000057F9002070BD2846FDF752F9332070BDF6
:1030100010B5094CE07900280CD100F0DBFD607997
:103020000649207151F82000A0622062BDE81040DE
:10303000FDF741B910BD00007800002020B000204D
:1030400010B5022000F016FAFDF72EF9084C002109
:10305000E161FDF72DF9642000F00CFAFDF724F989
:10306000E169616101216170BDE81040FDF720B99F
:1030700078000020FEF7C4BA2DE9FE4305460F464E
:1030800090461C463F2B02D92A20BDE8FE83FDF75F
:103090000BF91A49097819B1FDF70AF93C20F4E750
:1030A000174E56F8241019B1FDF702F92820ECE765
:1030B000012146F82410FDF7FBF80023424639466B
:1030C000284600F04BF900270146009701973B4640
:1030D0003A462046029700F08DFD050007D0FDF727
:1030E000E3F846F82470FDF7E3F82846CDE70548F5
:1030F00000780128F9D100F049FDF6E77A000020B8
:1031000020B000207F0000202DE9F04F81462DEDFA
:10311000028B83B08A46DDE90F879DED118A129DEF
:1031200093461C463F2B05D92A2003B0BDEC028BE9
:10313000BDE8F08FFDF7B8F81D49097819B1FDF722
:10314000B7F83C20F1E71B4E56F8241019B1FDF7F3
:10315000AFF82820E9E7012146F82410FDF7A8F888
:103160002A463946404600F025FE2B465A4651462F
:10317000484600F0F3F800978DED018A014602956C
:10318000424620460E9B00F035FD050008D0FDF7B5
:103190008BF8002146F82410FDF78AF82846C4E78A
:1031A000054800780128F9D100F0F0FCF6E70000AE
:1031B0007A00002020B000207F000020FEF77CBABB
:1031C000FEF77CBA70B505460E4614463F2803D973
:1031D000FF2D01D02A2004E02EB11248007820B142
:1031E0001220107070BD0C20FBE7FDF75DF8014662
:1031F000FF2D03D10C48006890F836500B4850F86A
:103200002500432540B1012806D006650846FDF794
:103210004FF80020207070BD0846FDF749F8257072
:1032200070BD00007A0000209800002020B000202F
:1032300010B504463F2801D32A2010BDFDF734F80D
:1032400001461F4850F8240058B101280ED090F8CC
:10325000342013072FD512F0F70280F834200AD05B
:103260000BE00846FDF724F8462010BD0846FDF7A0
:103270001FF8432010BD026B22B10846FDF718F875
:10328000002010BD0F4A00F138008378147843EA1B
:103290000403137003780C4A4078D45C44EA0004B9
:1032A000D4540846FDF704F8084800780128E7D10F
:1032B00000F06CFCE4E70846FCF7FAFF442010BD80
:1032C00020B000207E000020AC0000207F00002005
:1032D000FEF766BA2DE9F04104460D463F2804D9B1
:1032E000FF2C02D02A20BDE8F08145B100202860E3
:1032F0006860FCF7D9FF0146FF2C02D005E00920E9
:10330000F1E71448006890F83640134850F824005C
:1033100058B1012809D0028AD2070BD0D0E9024760
:1033200000260846FCF7C4FF0AE00846FCF7C0FF89
:103330004320D8E70846FCF7BBFF4520D3E7761CBF
:1033400001CC0028FBD0B0002860B81B800068606A
:103350000020C8E79800002020B000204FF08073C4
:103360001360131F18606FF0010042F8080CA2F1FF
:1033700038004FF012334FF00332C0E90A234FF008
:10338000023242624FF00132C0E907124FF01131B0
:1033900081614FF0103141614FF0093101614FF00F
:1033A0000831C1604FF0073181604FF00631416054
:1033B0004FF0053140F804194FF0043101607047B7
:1033C00070B5274D04463F2804D005D3FF280CD004
:1033D0002A2070BD472070BDFCF766FF03462868B1
:1033E00090F83600A04206D007E0FCF75DFF0346E8
:1033F000286890F83640012500E00025194850F86B
:10340000240068B1012810D090F83820164C90F8AC
:103410003960A15CF643F6B23140A1540AD010E005
:103420001846FCF745FF482070BD1846FCF740FFE2
:10343000432070BD0D4A90F83A10147824EA010137
:10344000117010F8341F41F0080101701846FCF7A4
:103450002FFF012D01D100F099FB002070BD00006D
:103460009800002020B00020AC0000207E0000204A
:10347000FEF797B970B5044614480078002824D1A7
:1034800013480078002820D1002C1ED0FCF70CFF38
:1034900003461048104D006890F8381090F83960D5
:1034A0006A5CF643F6B232406A5406D10B4A90F891
:1034B0003A10157825EA0101117004631846FCF7EB
:1034C000F7FEBDE8704000F061BB70BD7A000020DF
:1034D0007B00002098000020AC0000207E0000202F
:1034E0002DE9F04100F052F8FCF7DEFE264D296B85
:1034F000491C2963FCF7DCFEE879012841D1687A90
:103500000126002720B101283BD0022802D06F728B
:10351000EC6A32E06E72FBE7FCF7C6FE216B49B342
:10352000491E216326D194F8341011F0370F06D0CC
:1035300001F0C80184F8341084F8356001E084F8A3
:10354000357094F83410090714D404F13804AA79BA
:10355000A178DFF834C041EA0201A97121780CF1A9
:10356000340C63781CF80120A4F1380442EA030209
:103570000CF801206469FCF79BFE94F836003F28A4
:10358000CAD1BDE8F08100007800002010B5FEF738
:10359000BBF907480188491C89B20180642905D319
:1035A00000210180BDE8104000F004B810BD00000B
:1035B0007400002001480068FFF7FEBCCC0000202A
:1035C00070B588B04FF420712E4800F08FFA40217A
:1035D0002D4800F08BFA00202A4904466422431C3F
:1035E00000EB80001D4601EBC0009BB203EB8303A0
:1035F000027001EBC30380F82540C36023A303627C
:10360000A8B20F28EBD300EB800001EBC0000270E2
:1036100080F825401DA2C46002621D481E4A046055
:103620001C480480102010801C4801600120FFF716
:103630003DFC1B4D28600020FFF738FC194E05AA01
:1036400019A130602868FFF763FA05AA1BA130684A
:10365000FFF75EFA402102910320CDE903401C4AA6
:103660004FF6FD70CDE900023D23FC3200211948E0
:10367000FFF74AFD06AA18A13D20FFF7A3FD08B0F9
:1036800070BD0000D8B9002058BD00203F000000E8
:10369000C4000020C2000020C0000020D000002094
:1036A000C8000020CC00002075432F4F532D4949FE
:1036B00020546D724C6F636B0000000075432F4FF8
:1036C000532D494920546D725369676E616C000037
:1036D00058BC00203137000875432F4F532D4949FE
:1036E00020546D7200000000032280F825200E4A4D
:1036F0000129126813D0816989B1114441610B4AD3
:1037000001F0070102EBC10100230A68086042B121
:10371000C26010618A88521C8A8003617047C16947
:10372000EBE70122C360F7E7C400002058BD00208A
:1037300008B5DFF86880DFF868901A4E6A46002105
:10374000D8F80000FFF7D8FBFFF77CFB3068401C7F
:10375000306000F00700022759F8304013E061693B
:103760003068E56881420DD1204600F01DF894F8DC
:10377000240002280CD084F82570626812B120461B
:10378000A16890472C46002CE9D1FFF771FBD5E7E3
:1037900001212046FFF7A8FFEFE70000CC00002042
:1037A00058BD0020C400002010B541690E4A01F048
:1037B000070102EBC10200231468C168844203D1EF
:1037C000116041B10B6106E0D0F810C0CCF80C10CC
:1037D00009B1C1F810C0012180F82510C360036150
:1037E0009088401E908010BD58BD002010B5044642
:1037F00000F018F860640020206410BD10B500F0DF
:1038000011F805490968D1E91023C31A1A440A645A
:1038100002490968486410BD98000020A0000020FB
:10382000AFF3008070B5FCF73FFD054600F010F8DF
:1038300006490A890881821A886992B28418284642
:103840008C61FCF735FD204670BD0000D4000020DF
:103850004FF0804000F069BE0B484FF47A71006869
:10386000B0FBF1F0B0F1807F0DD220F07F414FF03E
:10387000E020491E4161054AF0211170002181615B
:10388000072101617047FEE75000002023ED00E0B2
:10389000F0B50546807A194C4FF00007205C05EB27
:1038A0000006F67AA45D04EBC004E6B2144C54F8AA
:1038B000264004F12404E7602160217C21EA020112
:1038C00021746374A4F1240409070BD40D4994F8FE
:1038D0003A208B791A438A71343194F839300A5C72
:1038E0001A430A542946204600F00EF8216A19B1FD
:1038F000204600F01BF8E5613046F0BDBEC300086D
:1039000020B000207800002010B590F8382090F802
:1039100039408B18E443DA7AE4B22240DA7204D1F7
:103920008A7A90F83A0082438A7210BD30B510F856
:10393000383F827890F801C0D2436FEA0C04E4B2B9
:10394000D5B208680DE000BF00EB030C9CF80B201B
:1039500022408CF80B2002D1827A2A40827251F8E0
:10396000040F0028F0D130BD30B5154900F10B022D
:103970000B6AD86193F838C093F839301CF80240CC
:103980001C430CF802400A6A837A02F138029478E8
:1039900043EA04038372137801F134045578E05C40
:1039A0006FEA0505EDB22840A2F13802E05405D1D6
:1039B00092F83A008A7922EA0000887130BD00004E
:1039C000780000200022827211464318491CC9B2B7
:1039D000DA720829F9D3704710B550210E4800F06B
:1039E00085F800200C4A0146431C1C4602EB0010DF
:1039F0009BB202EB03130170436008A3C360A0B243
:103A00000428F1D302EB00100170416003A1C160F2
:103A10000348026010BD0000B0B800203F00000065
:103A2000B400002010B54FF4F071114800F05EF8BA
:103A300000200F4A0146431C1C4600EB40009BB28D
:103A400002EBC00003EB430302EBC30301704360CE
:103A500008A34361A0B21328EDD300EB400002EBB2
:103A6000C0000170416003A141610348026110BDC3
:103A7000C0AC00203F0000007800002010B54FF4DB
:103A8000F261164800F032F84FF48071144800F0EB
:103A90002DF812490020421C00EB400404EBC0004A
:103AA000D3B203EB430401EBC00004EBC30301EB0F
:103AB000C30343610BA30365D0B21528EBD300EB1E
:103AC000400202EBC00001EBC00006A30022036528
:103AD00042610548C262416210BD000020B1002071
:103AE00020B000203F00000078000020002203E00A
:103AF000491E00F8012B89B20029F9D17047000056
:103B000010B578210E48FFF7F1FF0D4A002000BFE5
:103B100000EB400102EBC10101F118034B60401CB6
:103B200008A380B24B610428F2D300EB400002EB03
:103B3000C0000021416003A141610348026010BD43
:103B400000B900203F000000B800002010B560213F
:103B50000C48FFF7CBFF0B4A0020411C8BB200EB57
:103B6000400003EB430302EBC30342F8303088B25A
:103B70000328F2D300EB4000002142F83010024845
:103B8000026010BD78B90020BC00002070B5FCF7C1
:103B90008BFB0E4D0446A87898B9E87888B900F0F8
:103BA00019F80B48697950F82100A8622A799142E6
:103BB00007D0C16B491CC163E868401CE860FCF792
:103BC0008AFB2046BDE87040FCF772BB78000020FD
:103BD00020B000200649054A01F134038879105CC1
:103BE0001B5CD25C02EBC00048717047BEC300088A
:103BF000780000202DE9F04705462DED028B0E469A
:103C000090469946DDED0A8A9DED0B8ADDF830A0DD
:103C1000FCF74AFB394F7C6A002C6BD061697962F2
:103C2000FCF746FB266084F83650002684F83460A2
:103C300084F83560266384ED018AC4ED038A04F1BB
:103C40001C044FEAD50244F8148C24F80CAC24F878
:103C50000A9CE677227705F007014FF0010000FA91
:103C600002F2E176A27700FA01F0607726606660E2
:103C7000E660A6602662A662666221A0E662C4E9EA
:103C80000C60A4F11C04304604EB800100F101003B
:103C90004E6510F0FF00F7D02046FFF7EBF9204605
:103CA000FFF78CFAFCF700FB0146164840F8254068
:103CB000F86AC4E9050600B18461FC6204F13804C5
:103CC000BA79A07840EA0200B8710C48227800F175
:103CD00034006478835C43EA04038354387A00F147
:103CE000010038720846FCF7E3FA0020BDEC028BB5
:103CF000BDE8F087FCF7DCFA4220F7E77800002007
:103D00003F00000020B00020054C00BFFCF7CCFABB
:103D1000E169491CE161FCF7CBFAFFF751FAF5E7DD
:103D200078000020144C02E0C820FFF7A3FB607865
:103D30000028F9D0642160690025B0FBF1F06061D2
:103D400018B92570FF20FFF73BFBFCF7ADFAE169DE
:103D5000C4E90615FCF7ACFAD4E90510B0FBF1F0A4
:103D6000C0F164002070FFF7B3FA00F007F8642098
:103D7000FFF780FBE9E70000780000207CB50C4DE0
:103D8000002469462046FFF7A5FA58B955F82400E3
:103D900040B1012806D0D0E9021201EB8201816412
:103DA0000199C164641CE4B23F2CEAD97CBD0000D7
:103DB00020B00020D30707D0920705D500220029A4
:103DC00002D004C0491EFAE770470000044A0029E7
:103DD000116801D0014300E0814311607047000089
:103DE00030380240044A0029116801D0014300E044
:103DF000814311607047000040380240044A0029A6
:103E0000116801D0014300E0814311607047000058
:103E100020380240044A0029116801D0014300E023
:103E200081431160704700004438024030B5224B96
:103E30001968224A11F00C0104D05510042903D04E
:103E4000082903D002601DE005601BE01A49091F24
:103E50000C68C4F3805C0C68BCF1000F04F03F04F4
:103E600002D0B5FBF4F201E0B2FBF4F20C68096891
:103E7000C4F388146243C1F30141491C4900B2FBF9
:103E8000F1F1016019680E4A01F0F0010909545C72
:103E90000168E14041601C6804F4E054A40A145D28
:103EA00021FA04F484601B6803F460435B0BD25C6A
:103EB000D140C16030BD0000083802400024F40049
:103EC000640000202DE9F047804688B001210320DE
:103ED000FFF77CFF4FF4802901214846FFF782FF5E
:103EE00001268DF804600024DFF8D4A04FF40047C9
:103EF0008DF80640022500978DF80550694650461A
:103F0000FDF714FE07220A215046FDF74DFE072259
:103F10000B215046FDF748FE8DF8045068028DF8DD
:103F2000064000908DF805508DF8076069465046B0
:103F3000FDF7FCFDA80200908DF804508DF80740B5
:103F400069465046FDF7F2FD01214846FFF756FF4E
:103F500000214846FFF752FFADF810400C20194DE4
:103F6000ADF80C40ADF81200CDF80880ADF80E4069
:103F7000ADF8144002A9284600F050FC4FF4A060B0
:103F8000FEF7BAFD27208DF818008DF819408DF83E
:103F90001A408DF81B6006A8FEF77CFD012240F256
:103FA0002551284600F022FC0121284600F0EEFBB6
:103FB00039465046FDF70FFE08B0BDE8F087000017
:103FC00000040240004800402DE9FC4780460120E3
:103FD0008DF804000027DFF870A04FF400498DF839
:103FE000067002200D468DF805004C46CDF8009075
:103FF000694656465046FDF799FD21463046FDF785
:10400000ECFD0024114E0FE04021304600F0C8FBCB
:104010000028F9D018F80410304600F05FFC642046
:1040200005F062FD641CE4B2AC42EDD340213046A1
:1040300000F0B6FB0028F9D0054807624946504613
:10404000FDF7C9FDBDE8FC870004024000480040C0
:1040500000000020214D224E4FF420473846FDF746
:104060008DFA2870401E212818D3FCF71DF904464C
:1040700002203072FFF7A4F90420FFF7A1F9032012
:10408000FFF79EF92046FCF713F90222114610466D
:10409000FEF793FC642005F009FDDFE71F28DDD85B
:1040A000FCF702F90022044611461046FEF785FC93
:1040B00000200C493072287848700220FFF7B8F8C9
:1040C0000420FFF7B5F80320FFF7B2F80120FFF74F
:1040D00077F92046FCF7ECF8C0E700004B01002020
:1040E00000000020B6AC00207047000010B58A0721
:1040F00021F003040649130F21440F220C689A4053
:1041000094430C600A68984002430A6010BD0000A6
:10411000083801402DE9F041164F05460E467878E3
:10412000012825D1002078700446DFF84C801BE080
:1041300028064FF04001404602D4FDF74CFD01E057
:10414000FDF74BFD80214046FDF745FD012005F0C0
:10415000CBFC80214046FDF740FD012005F0C4FC6A
:104160006806050E641CE4B2B442E1D30120787005
:10417000BDE8F081040100200004024070B50A4D42
:10418000044620212846FDF726FD03218020FFF765
:10419000C1FF09212046FFF7BDFF2846BDE870405A
:1041A0002021FDF71ABD0000000402402DE9F04176
:1041B000164F05460E467878012821D100207870E8
:1041C0000446DFF84C8017E0E8074FF04001404616
:1041D00018D0FDF702FD80214046FDF7FCFC0120D0
:1041E00005F082FC80214046FDF7F7FC012005F038
:1041F0007BFC6D08641CE4B2B442E5D30120787006
:10420000BDE8F081FDF7E7FCE5E7000004010020D0
:1042100000040240224900200A6842F480320A6009
:104220004FF4A0630A6800F1010012F4003F01D1CD
:104230009842F7D10868800331D5194840300268A8
:1042400042F0805202601748026842F480420260E5
:104250001348083002680260026842F400420260BB
:10426000026842F4A0520260031F0F4A1A600A68F3
:1042700042F080720A600A689201FCD50B4A40F253
:1042800005611160016821F003010160016841F0DE
:10429000020101600168C1F381010229FAD170476E
:1042A000003802400070004008544007003C0240C3
:1042B0004FF0E0210428086903D020F004000861D1
:1042C000704740F00400FAE710B5FBF7EDFF064A2F
:1042D0001178491C1170FBF7EBFFFFF701F9BDE8FE
:1042E0001040FEF7C3BC00007A000020124810B551
:1042F000016841F4700101601048016841F001015A
:1043000001600E4A00210832116002680C4B1A400D
:104310000260031D0B4A1A60026822F480220260C8
:1043200006480C300160FFF775FF03494FF000604D
:104330008039086010BD000088ED00E000380240C0
:10434000FFFFF6FE1030002410B5FEF783FC184C7A
:104350000121204600F0EBF828B30121204600F0AF
:10436000D7F8144C207A78B9E08A40B912484078DE
:1043700007F022FA6078401C6070E08A20B180B2B9
:10438000401EE082012060700C48017821B1491E76
:1043900011F0FF01017006D1064849308279417958
:1043A0000079FEF7A3FABDE81040FEF75FBC0000FD
:1043B0000004004000000020B6AC002051010020A5
:1043C0007FB504460D4601210220FFF70BFD019445
:1043D0000020ADF80050124CADF80800ADF8020016
:1043E0006946204600F0B6F801221146204600F04A
:1043F000A9F84FF4A060FEF77FFB1D208DF80C009C
:1044000001218DF80D108DF80E108DF80F1003A8F6
:10441000FEF740FB0121204600F07DF87FBD000043
:104420000004004070B5FEF715FC1E4C012120462B
:1044300000F07DF888B30121204600F069F8FEF70E
:104440005BF9194A00214FF4FA74157802F12D0333
:1044500002F12000012D08D105886D1CADB2058048
:10446000A54202D10180117019715578012D08D132
:1044700045886D1CADB24580A54202D14180517086
:1044800059719578012D08D185886D1CADB2858054
:10449000A54202D1818091709971BDE87040FEF70C
:1044A000E5BB0000000800401C0000207FB504466A
:1044B0000D4601210420FFF795FC0194ADF8005052
:1044C0000024124DADF80840ADF802406946284678
:1044D00000F040F801221146284600F033F84FF46E
:1044E000A060FEF709FB1E208DF80C0002208DF85D
:1044F0000D008DF80E4001208DF80F0003A8FEF787
:10450000C9FA0121284600F006F87FBD00080040E6
:10451000C943018270470029018802D041F001019E
:1045200001E021F0010101807047406A7047038A71
:10453000002280890B4200EA010001D000B1012273
:1045400010467047002A828901D00A4300E08A435E
:104550008281704730B50288174B184C98420DD0B5
:10456000A0420BD0B0F1804F08D0154DA84205D025
:10457000144DA84202D0144DA84204D122F0700C70
:104580004A8842EA0C02114DA84207D0104DA842B9
:1045900004D022F4407C0A8942EA0C0202804A6874
:1045A000C2620A880285984201D0A04201D1897A6C
:1045B00001860121818230BD0000014000040140DC
:1045C0000004004000080040000C004000100040C3
:1045D00000140040F0B5ADF5017DFBF7BBFE664A67
:1045E0001178491C1170FBF7B9FE644C40F225515B
:1045F000204600F0DCF800287ED0204600F06AF962
:104600005F4C216A6D460DEB0102491C216210705E
:10461000206A684410F8010C0127242802D18DF883
:1046200000002762206A284410F8010C00263F2869
:1046300030D1206A0C2803D19DF808003C280DD009
:10464000206A0C2803D19DF80800402806D0206A73
:104650000C281ED19DF8080021281AD1207A0128A3
:1046600011D148489DF80A104078884211D946492E
:104670002672DE2008701420E0820320FEF7A0FEE0
:104680000220FEF7D5FD207A18B96946606AFEF768
:10469000ADFB2662206A284410F8010C2D2802D1B7
:1046A0008DF800002762206A284410F8010C3D288C
:1046B0000BD1206A072807D19DF805002F2803D1C8
:1046C0006946606AFEF792FB2662207A01283FD194
:1046D000206A284410F8010C262802D18DF8000029
:1046E0002762206A284410F8010C2A2815D1266276
:1046F0009DF80100232800E038E003D16946A06A54
:10470000FEF774FB9DF801002B2803D16946E06A8F
:10471000FEF76CFB207A01281AD1206A284410F891
:10472000010C252802D18DF800002762206A284458
:1047300010F8010C292814D19DF80100282806D171
:10474000206A0D2803D16946206BFEF74FFB2662D5
:10475000207A30B9206A284410F8010C292800D1A9
:104760002662206AB0F5FA7F00D32662FEF77EFA51
:104770000DF5017DF0BD00007A00002000480040EA
:1047800000000020B6AC00204A01002000298189E9
:1047900002D041F4005101E021F4005181817047C1
:1047A0000246002012880A4200D00120704770B5EE
:1047B00001F01F0601220025C1F3421302FA06F49C
:1047C000012B0FD0022B0FD0838A4FEA11210088D2
:1047D000234202FA01F200EA020001D000B10125F1
:1047E000284670BD8389F0E7038AEEE7C1F34213E0
:1047F00001F01F0C012101FA0CF1012B07D0022B53
:1048000007D01430002A026805D00A4304E00C30B7
:10481000F8E71030F6E78A43026070477FB5044638
:10482000008A0D4620F44051E88808432082A08980
:1048300041F20C618843A9882A8911436A8902439D
:104840001143A181A08A20F44071A8890843A08265
:104850006846FFF7EBFA1D48844202D01C488442A8
:1048600001D1039800E00298A1890904002900EB16
:10487000C00101EB0010296802DA4FEA410101E0B2
:104880004FEA8101B0FBF1F06422B0FBF2F14FEA94
:1048900001114FEA11136FF018056B4300EB830011
:1048A000A3891D044FF0320306D503EBC000B0FB13
:1048B000F2F000F0070005E003EB0010B0FBF2F0AF
:1048C00000F00F00084320817FBD00000010014070
:1048D000001401408088C0F308007047C1F308014C
:1048E00081807047FEE700002DE9F04104460D4647
:1048F00016462920FFF742FC0120FFF73FFC03206A
:10490000FFF73CFC0F4F20213846FDF764F90321E7
:10491000A020FFF7FFFBA006000E0621FFF7FAFB21
:10492000002406E028780421FFF740FC641CE4B270
:104930006D1CB442F6D33846BDE8F0412021FDF7A6
:104940004CB900000004024070B504460D46292011
:10495000FFF714FC0120FFF711FC0320FFF70EFC0A
:104960000B4E20213046FDF736F90321A020FFF73A
:10497000D1FBA006000E0621FFF7CCFB0421284640
:10498000FFF714FC3046BDE870402021FDF725B943
:104990000004024003B401984100009850EAC1208D
:1049A00018BF04204A0D18BF40F0010040F2FF720A
:1049B000B2EB515F08BF40F00200012808BF05209C
:1049C00002B070470000000070B59F482DED020B4B
:1049D0002DED068B079D25F0004484421DDB9B488E
:1049E000844202DC0FD1069868B19DED060B53ECB2
:1049F000102B51EC100B06F09DFFBDEC068B02B0A6
:104A000041EC100B70BD002DCCBF9FED910B9FEDC5
:104A1000920BBDEC068B02B070BD9148844215DA52
:104A200090488442A8BF4FF0FF3440DA9DED060B5A
:104A300051EC100BFFF7AEFF042808BF00F0A8FAF6
:104A40009DED060BBDEC068B02B070BD9DED060B17
:104A500051EC100B05F064F841EC100B82488DED21
:104A6000060B9FED839B84423CDA834884421FDA25
:104A700000249FED83AB51EC100B53EC1A2B06F086
:104A800059FF9DED060B41EC180B53EC1A2B51EC22
:104A9000100B07F0EFF953EC192B07F02BFB53EC3D
:104AA000182B06F0FBFF41EC100B8DED060B49E0D7
:104AB000012453EC192B51EC100B06F03BFF9DED3C
:104AC000060B41EC180B53EC192B51EC100B07F0B3
:104AD00011FB53EC182B06F0E1FF41EC100B8DEDB0
:104AE000060B2FE0684884421FDA02249FED68AB72
:104AF00051EC100B53EC1A2B07F0BCF953EC192BAB
:104B000006F018FF9DED060B41EC180B53EC1A2B29
:104B100051EC100B07F0EEFA53EC182B06F0BEFF29
:104B200041EC100B8DED060B0CE053EC102B032425
:104B30009FED590B51EC100B06F0B0FF41EC100B40
:104B40008DED060B9DED060B53EC102B51EC100B6D
:104B500007F090F941EC180B53EC182B07F08AF989
:104B600041EC190B4E480621B0EE490AF0EE690AF5
:104B7000784400F091F953EC182B51EC100B07F02E
:104B800079F941EC180B4748B0EE490AF0EE690A92
:104B90000521784400F080F953EC192B51EC100BEF
:104BA00007F068F941EC100B51EC180B53EC102B8B
:104BB000002C0EDA06F0BEFE9DED061B53EC112B09
:104BC00007F058F99DED061B53EC112B07F086FA00
:104BD00035E006F0AFFE9DED061B53EC112B07F000
:104BE00049F941EC100B3048784400EBC40090EDDB
:104BF000001B51EC100B53EC112B07F07BFA9DEDD1
:104C0000061B53EC112B07F075FA41EC100B2748EB
:104C1000784400EBC40090ED001B51EC100B53ECFA
:104C2000112B07F05BFA41EC100B002DA2BFBDEC7D
:104C3000068B02B070BD51EC100B06F03DFE41EC4E
:104C4000100BFFE600000000000010440000F07FA1
:104C5000182D4454FB21F93F182D4454FB21F9BF72
:104C60000000DC3F0000203E0000F33F0000000099
:104C7000000000000000F03F0000E63F00000000E0
:104C80000000000000000040008003400000000021
:104C9000000000000000F83F000000000000F0BF2E
:104CA000C4DF00007ADF000004DF0000BCDE00008B
:104CB00070B5694E2DED040B2DED028B82B0DDE950
:104CC000053C079ACCF1000422F000414CEA0404B0
:104CD00041EAD474049D23F00040B44205D86C42EC
:104CE0002C4340EAD474B44210D99DED060B53EC2A
:104CF000102B9DED040B51EC100B06F01BFE41EC4C
:104D0000100B02B0BDEC028B04B070BDA2F1405498
:104D1000A4F17F6454EA0C040BD0022404EAA274C8
:104D200044EAD37405439FED4E8B9FED4F2B07D084
:104D300010E09DED040B51EC100B00F0CBF93BE0C3
:104D4000002C14BF012C9DED040BDAD0022C36D0C0
:104D5000032C39D051EA0C0C9FED451B9FED460BFF
:104D60000AD0B14219D1B04209D121F0804120F0DE
:104D700080400791059010E0002BC2DA11E0DFF8C7
:104D800000C1FC44002C08BF9CED000BB9D0012CE5
:104D90000CD0022C13D0032C16D0B04219D1002B0A
:104DA000AFDAB0EE410AF0EE610AAAE79CED000B23
:104DB00051EC100B06F080FD41EC100BA1E7B0EEBA
:104DC000480AF0EE680A9CE7B0EE420AF0EE620A8A
:104DD00097E7401A00153C2816DC002ABCBF10F1EA
:104DE0003C0F9FED290B0FDB9DED060B53EC102BB9
:104DF0009DED040B51EC100B06F050FE04F090FEFC
:104E000000F068F941EC100B002C8DED000B3FF425
:104E100078AF012C10D0022C9FED1D0B53EC102B02
:104E20009DED000B51EC100B0ED007F063F953EC25
:104E3000182B07F05FF9BFE710EE900A80F00040F2
:104E400001909DED000B5CE707F054F953EC182B33
:104E500007F044F9B0E700000000F07F0000000018
:104E6000182D4454FB210940182D4454FB2109C03E
:104E7000182D4454FB21F9BF182D4454FB21F93F50
:104E8000E2DD000000000000000000000000000063
:104E9000075C143326A6A13C70B505462DED028BA8
:104EA0004C1E00EBC400B0EE408AF0EE608A90ED3C
:104EB000000B34F0060017D053EC182B51EC100BFC
:104EC00006F0D8FF41EC100B641E05EBC40090ED1A
:104ED000001B51EC100B53EC112B06F02BFD41EC99
:104EE000100B34F00600E7D1022C36D0042C1CD075
:104EF000062C1CBFBDEC028B70BD53EC182B51EC83
:104F0000100B06F0B7FF95ED0A1B53EC112B06F0C2
:104F100011FD53EC182B06F0ADFF95ED081B53EC7B
:104F2000112B06F007FD41EC100B53EC182B51EC44
:104F3000100B06F09FFF95ED061B53EC112B06F0AE
:104F4000F9FC53EC182B06F095FF95ED041B53EC80
:104F5000112B06F0EFFC41EC100B53EC182B51EC2D
:104F6000100B06F087FF95ED021B53EC112B06F09A
:104F7000E1FC53EC182B06F07DFF95ED001B53EC84
:104F8000112B06F0D7FCBDEC028B41EC100B70BD71
:104F90009FED050B10B553EC102B51EC100B06F0E8
:104FA00069FF41EC100B10BD000000000000001074
:104FB000F0B500234FF480625C1E02EBD27504EB67
:104FC000650419E05E1C00EE106A00EB8307B8EE82
:104FD000C00AD7ED000A20EE800A87ED000A00EE35
:104FE000106A01EB83075B1CB8EEC00AD7ED000A1C
:104FF00020EE800A87ED000A9C42E3DA6B10561E11
:105000001DE000BFA2EB030CACF1010C00EE10CAD6
:1050100000EB8307B8EEC00AD7ED000A20EE200AA5
:1050200087ED000A00EE10CA01EB83075B1CB8EEA7
:10503000C00AD7ED000A20EE200A87ED000AB3422D
:10504000E0DB00221BE000BF02EB650300EB830600
:1050500000EB820796ED000AD7ED000A01EB83030F
:1050600030EE200A86ED000A01EB820693ED000A7D
:10507000D6ED000A521C30EE200A83ED000A94425D
:10508000E2DC00220FE000BF02EB650300EB8306C9
:1050900001EB830356F8046C40F8226053F8043C9B
:1050A00041F82230521C9442EEDAF0BDB5EEC00A4F
:1050B000F1EE10FA05DDF1EEC00AC0ED000A0020A5
:1050C00070479FED030A80ED000A4FF0FF307047F4
:1050D0000000000010B541EC100BFFF775FC51EC1F
:1050E000100B10BDF0B5022A02D0052A3DD039E0E0
:1050F000847804EB440301EB43035D7893F802C02A
:10510000DE7893F805E00DE004EB440301EB430384
:10511000641CDF795F701F7A9F705F7ADF70DF7ABF
:105120005F71E4B2C3785B1EA342EDDCC37803EB8E
:10513000430301EB430303F8055CC37803EB43032C
:1051400001EB430303F804CCC37803EB430301EB07
:10515000430303F8036CC37803EB430301EB4303FE
:1051600003F801EC0A2A48D03AE0047904EB44033E
:1051700001EB43035D789E7893F803E093F805C054
:105180000EE000BF04EB440301EB4303641CDF7932
:105190005F701F7A9F705F7ADF70DF7A5F71E4B2B1
:1051A00043795B1EA342EDDC437903EB430301EB40
:1051B000430303F8055C437903EB430301EB43032B
:1051C00003F8046C437903EB430301EB430303F857
:1051D00003EC437903EB430301EB430303F801CCF6
:1051E000142A6DD1037A03EB430201EB4202547897
:1051F0009578D67892F805C042E0837903EB4302B4
:1052000001EB420254789578D67892F805C00DE00B
:1052100003EB430201EB42025B1CD7795770177A0C
:105220009770577AD770D77A5771DBB2C279521E0E
:105230009A42EDDCC27902EB420201EB420202F833
:10524000054CC27902EB420201EB420202F8045C17
:10525000C27902EB420201EB420202F8036CC07910
:1052600028E000BF03EB430201EB42025B1CD7794D
:105270005770177A9770577AD770D77A5771DBB211
:10528000427A521E9A42EDDC427A02EB420201EB74
:10529000420202F8054C427A02EB420201EB420262
:1052A00002F8045C427A02EB420201EB420202F88D
:1052B000036C407A00EB400001EB400000F801CCA9
:1052C000F0BD0000F0B501295FD110B101282FD049
:1052D0002BE05C78002C2AD002EBC4052E7995F8DF
:1052E00001C095F805E00AE002EBC4050544641C22
:1052F0002F7B2F716F7A6F706F7B6F71E4B2DD79E6
:105300006D1EA542F0DCDC7902EBC404044404F811
:10531000046CDC7902EBC404044404F807CCDC79A7
:1053200002EBC404044404F803EC022830D0C6E0C5
:105330001C79002C7ED002EBC406751C767995F89A
:1053400001C095F805E00AE002EBC4050544641CC1
:105350002F7B2F716F7A6F706F7B6F71E4B29D7AC4
:105360006D1EA542F0DC9C7A02EBC404044404F8F0
:10537000046C9C7A02EBC404044404F807CC9C7AC5
:1053800002EBC404044404F803EC032929D096E09A
:105390005C7B002C70D002EBC406B51CB67995F886
:1053A00001C095F805E00AE002EBC4050544641C61
:1053B0002F7B2F716F7A6F706F7B6F71E4B29D7B63
:1053C0006D1EA542F0DC9C7B02EBC404044404F88F
:1053D000046C9C7B02EBC404044404F807CC9C7B63
:1053E00068E010B101283BD02DE09978002921D048
:1053F00002EBC104257994F801C066790BE000BF87
:1054000002EBC1040444491C277B2771677A67704B
:10541000677B6771C9B21C7A641E8C42F0DC197A12
:1054200002EBC101014401F8045C197A02EBC101ED
:10543000014400E088E001F807CC197A02EBC101D1
:10544000014401F8036C02287ED1D97B00297BD06E
:1054500002EBC105AC1CAD79667894F805C040E05C
:105460005C79002C70D002EBC406751C767995F837
:1054700001C095F805E00CE021E000BF02EBC40597
:105480000544641C2F7B2F716F7A6F706F7B6F7177
:10549000E4B2DD7A6D1EA542F0DCDC7A02EBC404D6
:1054A000044404F8046CDC7A02EBC404044404F8F9
:1054B00007CCDC7A02EBC404044404F803EC0629AC
:1054C00042D100B3012859D04BE000BF02EBC10428
:1054D0000444491C277B2771677A6770677B677173
:1054E000C9B21C7C641E8C42F0DC197C02EBC10149
:1054F000014401F8045C197C02EBC101014401F88C
:10550000076C197C80E0D97800291DD002EBC1041A
:105510002579667894F805C00BE000BF02EBC10462
:105520000444491C277B2771677A6770677B677122
:10553000C9B25C7A641E8C42F0DC597A02EBC1017C
:10554000014401F8045C00E063E0597A02EBC10118
:10555000014401F8076C597A02EBC101014401F8DA
:1055600003CC022855D1597C002952D002EBC10549
:10557000AC1CAD79667894F805C034E099790029BF
:1055800047D002EBC1056C1C6D79667894F805C0B4
:105590000BE000BF02EBC1040444491C277B2771C8
:1055A000677A6770677B6771C9B21C7B641E8C4227
:1055B000F0DC197B02EBC101014401F8045C197BAA
:1055C00002EBC101014401F8076C197B1CE000BF2C
:1055D00002EBC1040444491C277B2771677A67707A
:1055E000677B6771C9B29C7C641E8C42F0DC997C3D
:1055F00002EBC101014401F8045C997C02EBC1019A
:10560000014401F8076C997C02EBC101084400F8E1
:1056100003CCF0BDC9B261F31F2070472DE9F05FE4
:1056200005462DED108BADF5635D0F4614461E4605
:105630004FF000089FEDFE8A0DF58050142280ED9A
:10564000058A80ED068AFBA12430FBF719FD0DF5D4
:1056500080504FF40071C1610021C1634FF0000B15
:105660000121C0F810B0016480ED088A0802FBF740
:1056700085FF81464FF48050FBF780FF0DF5805188
:10568000DFF8C4A3886501F1240010F80910AAF816
:1056900018109AF80C0001287ED1FBF759FEFBF791
:1056A0006BFD9FEDEA8B9FEDEB9B00BFBAF81000FE
:1056B000BAF81290A0EB090006F075FB53EC182B1A
:1056C00006F0D8FB53EC192B06F0D4FB06F000F9DA
:1056D000014642F25C00684440F82810BAF80E0017
:1056E000A0EB090006F05FFB53EC182B06F0C2FBA1
:1056F00053EC192B06F0BEFB06F0EAF841F25C0110
:10570000694441F82800242004F0EEF908F101086A
:10571000B8F5806FCADB42F25C016944A1F580589C
:105720004046FFF745FC0DF5805043F67401006CD0
:1057300000900DF580506944C36BC269A1F1180057
:10574000FBF710F80DF108094A46414608F52050CC
:10575000FAF792FF0DF5805001210161059806F0DE
:10576000B3FD41EC180B049806F0AEFD41EC100BB4
:10577000B0EE481AF0EE681AFFF79AFA08F5805171
:10578000B0EE409AF0EE609A4A4601F5C050FAF742
:1057900073FF0DF5805000E080E0006909EBC00860
:1057A000D8F8040006F090FD41EC180BD8F8000082
:1057B00006F08AFD41EC100BB0EE481AF0EE681AC4
:1057C000FFF776FAB0EE408AF0EE608A53EC102BC9
:1057D00051EC190B06F08EFC894649EC100B804603
:1057E0009FED9E1B51EC100B53EC112B06F040FC6F
:1057F00018D249EC108B9FED9B1B51EC100B53EC16
:10580000112B06F037FB9FED991B53EC112B06F083
:1058100045F906F09BFA80B2763819E08AF805B0AF
:1058200001201BE053EC192B51EC180B06F062FC25
:105830009FED8C1B53EC112B06F01CFB9FED8B0B8B
:1058400053EC102B06F02AF906F080FA80B2EE38FD
:105850000428E3D901208AF805000320854908704F
:10586000FCF755F8DFF80C8298F80000012807D102
:1058700081489AF80220018880480078FCF726FACF
:1058800098F80000032807D17D489AF80420018881
:105890007C480078FCF71AFA8AF80CB09AF80500F0
:1058A00018B9FBF755FDFBF757FC9AF805000128DE
:1058B00003D1FBF76DFDFBF77FFC4FF0000800BF45
:1058C0006149BAF81000B1F81290A0EB090006F097
:1058D0006AFA9FED5E1B53EC112B06F0CBFA9FED9D
:1058E0005D1B53EC112B06F0C5FA05F0F1FF0146E4
:1058F00042F25C00684440F828105348C089A0EB8D
:10590000090006F050FA9FED511B53EC112B06F0E5
:10591000B1FA9FED501B53EC112B06F0ABFA05F0DA
:10592000D7FF41F25C01694441F82800242004F0CB
:10593000DBF808F101084FF480699FED53FB9FED00
:1059400054BB9FED559B9FED56AB9FED57DB9FEDF5
:1059500058EB9FED59CBC845B2DB42F25C0169447C
:10596000A1F58050FFF724FB0DF5805043F674013C
:10597000006C00900DF580506944C36BC269A1F1C1
:105980001800FAF7EFFE41F25C01694402AA01F542
:105990002050FAF771FE0DF5805001210161059844
:1059A00006F092FC41EC180B049806F08DFC41ECDB
:1059B000100BB0EE481AF0EE681AFFF779F90DF502
:1059C000805043F25C0180ED140BC269694402A867
:1059D000FAF73AFD0DF58050C06941080DF5805089
:1059E00000F11003816343F25C0088461A1D68448D
:1059F000FAF7F2FE0DF580509FED310AD0ED050A61
:105A000080EE801ABCEEC10A10EE100A80B206F0D9
:105A1000E1F99FED2C1B53EC112B06F03FF806F03B
:105A200095F9154902AA088042F25C0169444DE0EB
:105A300000000000010203040506080A0C101418F7
:105A40001E28323C506478000000002066666666BE
:105A500066660A40000000000000303F00000000C1
:105A60000000000000000000008076401C2D44541F
:105A7000FB21194004010020540100204E010020A8
:105A80005801002050010020000000000080564016
:105A900000000000008076C000000000008066402A
:105AA0000000000000E0704000000000008056C0D0
:105AB0000000000000E070C000000000008066C030
:105AC0000000C8426666666666E6044001F5C0509E
:105AD000FAF7D2FD0DF5805002A9006901EBC00173
